{
  "contractName": "Wallet",
  "abi": [
    {
      "inputs": [
        {
          "internalType": "address[]",
          "name": "_approvers",
          "type": "address[]"
        },
        {
          "internalType": "uint256",
          "name": "_quorum",
          "type": "uint256"
        }
      ],
      "stateMutability": "nonpayable",
      "type": "constructor"
    },
    {
      "inputs": [
        {
          "internalType": "address",
          "name": "",
          "type": "address"
        },
        {
          "internalType": "uint256",
          "name": "",
          "type": "uint256"
        }
      ],
      "name": "approvals",
      "outputs": [
        {
          "internalType": "bool",
          "name": "",
          "type": "bool"
        }
      ],
      "stateMutability": "view",
      "type": "function",
      "constant": true
    },
    {
      "inputs": [
        {
          "internalType": "uint256",
          "name": "",
          "type": "uint256"
        }
      ],
      "name": "approvers",
      "outputs": [
        {
          "internalType": "address",
          "name": "",
          "type": "address"
        }
      ],
      "stateMutability": "view",
      "type": "function",
      "constant": true
    },
    {
      "inputs": [],
      "name": "quorum",
      "outputs": [
        {
          "internalType": "uint256",
          "name": "",
          "type": "uint256"
        }
      ],
      "stateMutability": "view",
      "type": "function",
      "constant": true
    },
    {
      "inputs": [
        {
          "internalType": "uint256",
          "name": "",
          "type": "uint256"
        }
      ],
      "name": "tokens",
      "outputs": [
        {
          "internalType": "string",
          "name": "tokenSymbol",
          "type": "string"
        },
        {
          "internalType": "address",
          "name": "tokenAddress",
          "type": "address"
        }
      ],
      "stateMutability": "view",
      "type": "function",
      "constant": true
    },
    {
      "inputs": [
        {
          "internalType": "uint256",
          "name": "",
          "type": "uint256"
        }
      ],
      "name": "transfers",
      "outputs": [
        {
          "internalType": "uint256",
          "name": "id",
          "type": "uint256"
        },
        {
          "components": [
            {
              "internalType": "string",
              "name": "tokenSymbol",
              "type": "string"
            },
            {
              "internalType": "address",
              "name": "tokenAddress",
              "type": "address"
            }
          ],
          "internalType": "struct Wallet.Token",
          "name": "token",
          "type": "tuple"
        },
        {
          "internalType": "uint256",
          "name": "amount",
          "type": "uint256"
        },
        {
          "internalType": "address payable",
          "name": "to",
          "type": "address"
        },
        {
          "internalType": "uint256",
          "name": "approvals",
          "type": "uint256"
        },
        {
          "internalType": "bool",
          "name": "sent",
          "type": "bool"
        }
      ],
      "stateMutability": "view",
      "type": "function",
      "constant": true
    },
    {
      "stateMutability": "payable",
      "type": "receive",
      "payable": true
    },
    {
      "inputs": [
        {
          "internalType": "string",
          "name": "tokenSymbol",
          "type": "string"
        },
        {
          "internalType": "address",
          "name": "tokenAddress",
          "type": "address"
        }
      ],
      "name": "addToken",
      "outputs": [],
      "stateMutability": "nonpayable",
      "type": "function"
    },
    {
      "inputs": [],
      "name": "getTokens",
      "outputs": [
        {
          "components": [
            {
              "internalType": "string",
              "name": "tokenSymbol",
              "type": "string"
            },
            {
              "internalType": "address",
              "name": "tokenAddress",
              "type": "address"
            }
          ],
          "internalType": "struct Wallet.Token[]",
          "name": "",
          "type": "tuple[]"
        }
      ],
      "stateMutability": "view",
      "type": "function",
      "constant": true
    },
    {
      "inputs": [],
      "name": "getApprovers",
      "outputs": [
        {
          "internalType": "address[]",
          "name": "",
          "type": "address[]"
        }
      ],
      "stateMutability": "view",
      "type": "function",
      "constant": true
    },
    {
      "inputs": [],
      "name": "getTransfers",
      "outputs": [
        {
          "components": [
            {
              "internalType": "uint256",
              "name": "id",
              "type": "uint256"
            },
            {
              "components": [
                {
                  "internalType": "string",
                  "name": "tokenSymbol",
                  "type": "string"
                },
                {
                  "internalType": "address",
                  "name": "tokenAddress",
                  "type": "address"
                }
              ],
              "internalType": "struct Wallet.Token",
              "name": "token",
              "type": "tuple"
            },
            {
              "internalType": "uint256",
              "name": "amount",
              "type": "uint256"
            },
            {
              "internalType": "address payable",
              "name": "to",
              "type": "address"
            },
            {
              "internalType": "uint256",
              "name": "approvals",
              "type": "uint256"
            },
            {
              "internalType": "bool",
              "name": "sent",
              "type": "bool"
            }
          ],
          "internalType": "struct Wallet.Transfer[]",
          "name": "",
          "type": "tuple[]"
        }
      ],
      "stateMutability": "view",
      "type": "function",
      "constant": true
    },
    {
      "inputs": [
        {
          "internalType": "uint256",
          "name": "amount",
          "type": "uint256"
        },
        {
          "internalType": "address payable",
          "name": "to",
          "type": "address"
        },
        {
          "components": [
            {
              "internalType": "string",
              "name": "tokenSymbol",
              "type": "string"
            },
            {
              "internalType": "address",
              "name": "tokenAddress",
              "type": "address"
            }
          ],
          "internalType": "struct Wallet.Token",
          "name": "token",
          "type": "tuple"
        }
      ],
      "name": "createTransfer",
      "outputs": [],
      "stateMutability": "nonpayable",
      "type": "function"
    },
    {
      "inputs": [
        {
          "internalType": "uint256",
          "name": "id",
          "type": "uint256"
        }
      ],
      "name": "approveTransfer",
      "outputs": [],
      "stateMutability": "nonpayable",
      "type": "function"
    }
  ],
  "bytecode": "0x60806040523480156200001157600080fd5b50604051620026d3380380620026d3833981810160405281019062000037919062000406565b80600281905550816001908051906020019062000056929190620001eb565b5060005b8251811015620000ee5760016000808584815181106200007f576200007e6200061a565b5b602002602001015173ffffffffffffffffffffffffffffffffffffffff1673ffffffffffffffffffffffffffffffffffffffff16815260200190815260200160002060006101000a81548160ff0219169083151502179055508080620000e5906200056e565b9150506200005a565b50600460405180604001604052806040518060400160405280600381526020017f45544800000000000000000000000000000000000000000000000000000000008152508152602001600073ffffffffffffffffffffffffffffffffffffffff1681525090806001815401808255809150506001900390600052602060002090600202016000909190919091506000820151816000019080519060200190620001999291906200027a565b5060208201518160010160006101000a81548173ffffffffffffffffffffffffffffffffffffffff021916908373ffffffffffffffffffffffffffffffffffffffff16021790555050505050620006d1565b82805482825590600052602060002090810192821562000267579160200282015b82811115620002665782518260006101000a81548173ffffffffffffffffffffffffffffffffffffffff021916908373ffffffffffffffffffffffffffffffffffffffff160217905550916020019190600101906200020c565b5b5090506200027691906200030b565b5090565b828054620002889062000502565b90600052602060002090601f016020900481019282620002ac5760008555620002f8565b82601f10620002c757805160ff1916838001178555620002f8565b82800160010185558215620002f8579182015b82811115620002f7578251825591602001919060010190620002da565b5b5090506200030791906200030b565b5090565b5b80821115620003265760008160009055506001016200030c565b5090565b6000620003416200033b8462000495565b6200046c565b905080838252602082019050828560208602820111156200036757620003666200067d565b5b60005b858110156200039b5781620003808882620003a5565b8452602084019350602083019250506001810190506200036a565b5050509392505050565b600081519050620003b6816200069d565b92915050565b600082601f830112620003d457620003d362000678565b5b8151620003e68482602086016200032a565b91505092915050565b6000815190506200040081620006b7565b92915050565b6000806040838503121562000420576200041f62000687565b5b600083015167ffffffffffffffff81111562000441576200044062000682565b5b6200044f85828601620003bc565b92505060206200046285828601620003ef565b9150509250929050565b6000620004786200048b565b905062000486828262000538565b919050565b6000604051905090565b600067ffffffffffffffff821115620004b357620004b262000649565b5b602082029050602081019050919050565b6000620004d182620004d8565b9050919050565b600073ffffffffffffffffffffffffffffffffffffffff82169050919050565b6000819050919050565b600060028204905060018216806200051b57607f821691505b60208210811415620005325762000531620005eb565b5b50919050565b62000543826200068c565b810181811067ffffffffffffffff8211171562000565576200056462000649565b5b80604052505050565b60006200057b82620004f8565b91507fffffffffffffffffffffffffffffffffffffffffffffffffffffffffffffffff821415620005b157620005b0620005bc565b5b600182019050919050565b7f4e487b7100000000000000000000000000000000000000000000000000000000600052601160045260246000fd5b7f4e487b7100000000000000000000000000000000000000000000000000000000600052602260045260246000fd5b7f4e487b7100000000000000000000000000000000000000000000000000000000600052603260045260246000fd5b7f4e487b7100000000000000000000000000000000000000000000000000000000600052604160045260246000fd5b600080fd5b600080fd5b600080fd5b600080fd5b6000601f19601f8301169050919050565b620006a881620004c4565b8114620006b457600080fd5b50565b620006c281620004f8565b8114620006ce57600080fd5b50565b611ff280620006e16000396000f3fe6080604052600436106100a05760003560e01c80639abc952a116100645780639abc952a146101ad578063aa6ca808146101d6578063b0b22c2c14610201578063cacca4a01461022a578063d3650fb814610253578063ffabc67314610290576100a7565b80631703a018146100ac5780632f65142c146100d75780634f64b2be146101025780636cb3e8ef146101405780639377d7111461016b576100a7565b366100a757005b600080fd5b3480156100b857600080fd5b506100c16102cd565b6040516100ce9190611aa2565b60405180910390f35b3480156100e357600080fd5b506100ec6102d3565b6040516100f991906119b5565b60405180910390f35b34801561010e57600080fd5b5061012960048036038101906101249190611481565b6104bd565b6040516101379291906119f2565b60405180910390f35b34801561014c57600080fd5b50610155610599565b6040516101629190611971565b60405180910390f35b34801561017757600080fd5b50610192600480360381019061018d9190611481565b610627565b6040516101a496959493929190611abd565b60405180910390f35b3480156101b957600080fd5b506101d460048036038101906101cf91906114ae565b610792565b005b3480156101e257600080fd5b506101eb610996565b6040516101f89190611993565b60405180910390f35b34801561020d57600080fd5b5061022860048036038101906102239190611425565b610add565b005b34801561023657600080fd5b50610251600480360381019061024c9190611481565b610c9f565b005b34801561025f57600080fd5b5061027a60048036038101906102759190611481565b611177565b604051610287919061192d565b60405180910390f35b34801561029c57600080fd5b506102b760048036038101906102b291906113b8565b6111b6565b6040516102c491906119d7565b60405180910390f35b60025481565b60606003805480602002602001604051908101604052809291908181526020016000905b828210156104b457838290600052602060002090600702016040518060c0016040529081600082015481526020016001820160405180604001604052908160008201805461034490611d25565b80601f016020809104026020016040519081016040528092919081815260200182805461037090611d25565b80156103bd5780601f10610392576101008083540402835291602001916103bd565b820191906000526020600020905b8154815290600101906020018083116103a057829003601f168201915b505050505081526020016001820160009054906101000a900473ffffffffffffffffffffffffffffffffffffffff1673ffffffffffffffffffffffffffffffffffffffff1673ffffffffffffffffffffffffffffffffffffffff16815250508152602001600382015481526020016004820160009054906101000a900473ffffffffffffffffffffffffffffffffffffffff1673ffffffffffffffffffffffffffffffffffffffff1673ffffffffffffffffffffffffffffffffffffffff168152602001600582015481526020016006820160009054906101000a900460ff161515151581525050815260200190600101906102f7565b50505050905090565b600481815481106104cd57600080fd5b90600052602060002090600202016000915090508060000180546104f090611d25565b80601f016020809104026020016040519081016040528092919081815260200182805461051c90611d25565b80156105695780601f1061053e57610100808354040283529160200191610569565b820191906000526020600020905b81548152906001019060200180831161054c57829003601f168201915b5050505050908060010160009054906101000a900473ffffffffffffffffffffffffffffffffffffffff16905082565b6060600180548060200260200160405190810160405280929190818152602001828054801561061d57602002820191906000526020600020905b8160009054906101000a900473ffffffffffffffffffffffffffffffffffffffff1673ffffffffffffffffffffffffffffffffffffffff16815260200190600101908083116105d3575b5050505050905090565b6003818154811061063757600080fd5b90600052602060002090600702016000915090508060000154908060010160405180604001604052908160008201805461067090611d25565b80601f016020809104026020016040519081016040528092919081815260200182805461069c90611d25565b80156106e95780601f106106be576101008083540402835291602001916106e9565b820191906000526020600020905b8154815290600101906020018083116106cc57829003601f168201915b505050505081526020016001820160009054906101000a900473ffffffffffffffffffffffffffffffffffffffff1673ffffffffffffffffffffffffffffffffffffffff1673ffffffffffffffffffffffffffffffffffffffff1681525050908060030154908060040160009054906101000a900473ffffffffffffffffffffffffffffffffffffffff16908060050154908060060160009054906101000a900460ff16905086565b600115156000803373ffffffffffffffffffffffffffffffffffffffff1673ffffffffffffffffffffffffffffffffffffffff16815260200190815260200160002060009054906101000a900460ff16151514610824576040517f08c379a000000000000000000000000000000000000000000000000000000000815260040161081b90611a42565b60405180910390fd5b60036040518060c0016040528060038054905081526020018381526020018581526020018473ffffffffffffffffffffffffffffffffffffffff168152602001600081526020016000151581525090806001815401808255809150506001900390600052602060002090600702016000909190919091506000820151816000015560208201518160010160008201518160000190805190602001906108ca9291906111e5565b5060208201518160010160006101000a81548173ffffffffffffffffffffffffffffffffffffffff021916908373ffffffffffffffffffffffffffffffffffffffff16021790555050506040820151816003015560608201518160040160006101000a81548173ffffffffffffffffffffffffffffffffffffffff021916908373ffffffffffffffffffffffffffffffffffffffff1602179055506080820151816005015560a08201518160060160006101000a81548160ff0219169083151502179055505050505050565b60606004805480602002602001604051908101604052809291908181526020016000905b82821015610ad457838290600052602060002090600202016040518060400160405290816000820180546109ed90611d25565b80601f0160208091040260200160405190810160405280929190818152602001828054610a1990611d25565b8015610a665780601f10610a3b57610100808354040283529160200191610a66565b820191906000526020600020905b815481529060010190602001808311610a4957829003601f168201915b505050505081526020016001820160009054906101000a900473ffffffffffffffffffffffffffffffffffffffff1673ffffffffffffffffffffffffffffffffffffffff1673ffffffffffffffffffffffffffffffffffffffff1681525050815260200190600101906109ba565b50505050905090565b600115156000803373ffffffffffffffffffffffffffffffffffffffff1673ffffffffffffffffffffffffffffffffffffffff16815260200190815260200160002060009054906101000a900460ff16151514610b6f576040517f08c379a0000000000000000000000000000000000000000000000000000000008152600401610b6690611a42565b60405180910390fd5b600073ffffffffffffffffffffffffffffffffffffffff168173ffffffffffffffffffffffffffffffffffffffff161415610bdf576040517f08c379a0000000000000000000000000000000000000000000000000000000008152600401610bd690611a62565b60405180910390fd5b600460405180604001604052808481526020018373ffffffffffffffffffffffffffffffffffffffff1681525090806001815401808255809150506001900390600052602060002090600202016000909190919091506000820151816000019080519060200190610c519291906111e5565b5060208201518160010160006101000a81548173ffffffffffffffffffffffffffffffffffffffff021916908373ffffffffffffffffffffffffffffffffffffffff16021790555050505050565b600115156000803373ffffffffffffffffffffffffffffffffffffffff1673ffffffffffffffffffffffffffffffffffffffff16815260200190815260200160002060009054906101000a900460ff16151514610d31576040517f08c379a0000000000000000000000000000000000000000000000000000000008152600401610d2890611a42565b60405180910390fd5b6000151560038281548110610d4957610d48611e2f565b5b906000526020600020906007020160060160009054906101000a900460ff16151514610daa576040517f08c379a0000000000000000000000000000000000000000000000000000000008152600401610da190611a22565b60405180910390fd5b60001515600560003373ffffffffffffffffffffffffffffffffffffffff1673ffffffffffffffffffffffffffffffffffffffff168152602001908152602001600020600083815260200190815260200160002060009054906101000a900460ff16151514610e4e576040517f08c379a0000000000000000000000000000000000000000000000000000000008152600401610e4590611a82565b60405180910390fd5b6001600560003373ffffffffffffffffffffffffffffffffffffffff1673ffffffffffffffffffffffffffffffffffffffff168152602001908152602001600020600083815260200190815260200160002060006101000a81548160ff02191690831515021790555060038181548110610ecb57610eca611e2f565b5b90600052602060002090600702016005016000815480929190610eed90611d88565b919050555060025460038281548110610f0957610f08611e2f565b5b9060005260206000209060070201600501541061117457600160038281548110610f3657610f35611e2f565b5b906000526020600020906007020160060160006101000a81548160ff021916908315150217905550600060038281548110610f7457610f73611e2f565b5b906000526020600020906007020160040160009054906101000a900473ffffffffffffffffffffffffffffffffffffffff169050600060038381548110610fbe57610fbd611e2f565b5b9060005260206000209060070201600301549050600073ffffffffffffffffffffffffffffffffffffffff1660038481548110610ffe57610ffd611e2f565b5b906000526020600020906007020160010160010160009054906101000a900473ffffffffffffffffffffffffffffffffffffffff1673ffffffffffffffffffffffffffffffffffffffff1614611129576003838154811061106257611061611e2f565b5b906000526020600020906007020160010160010160009054906101000a900473ffffffffffffffffffffffffffffffffffffffff1673ffffffffffffffffffffffffffffffffffffffff1663a9059cbb83836040518363ffffffff1660e01b81526004016110d1929190611948565b602060405180830381600087803b1580156110eb57600080fd5b505af11580156110ff573d6000803e3d6000fd5b505050506040513d601f19601f8201168201806040525081019061112391906113f8565b50611171565b8173ffffffffffffffffffffffffffffffffffffffff166108fc829081150290604051600060405180830381858888f1935050505015801561116f573d6000803e3d6000fd5b505b50505b50565b6001818154811061118757600080fd5b906000526020600020016000915054906101000a900473ffffffffffffffffffffffffffffffffffffffff1681565b60056020528160005260406000206020528060005260406000206000915091509054906101000a900460ff1681565b8280546111f190611d25565b90600052602060002090601f016020900481019282611213576000855561125a565b82601f1061122c57805160ff191683800117855561125a565b8280016001018555821561125a579182015b8281111561125957825182559160200191906001019061123e565b5b509050611267919061126b565b5090565b5b8082111561128457600081600090555060010161126c565b5090565b600061129b61129684611b4a565b611b25565b9050828152602081018484840111156112b7576112b6611e9c565b5b6112c2848285611ce3565b509392505050565b6000813590506112d981611f60565b92915050565b6000813590506112ee81611f77565b92915050565b60008151905061130381611f8e565b92915050565b600082601f83011261131e5761131d611e8d565b5b813561132e848260208601611288565b91505092915050565b60006040828403121561134d5761134c611e92565b5b6113576040611b25565b9050600082013567ffffffffffffffff81111561137757611376611e97565b5b61138384828501611309565b6000830152506020611397848285016112ca565b60208301525092915050565b6000813590506113b281611fa5565b92915050565b600080604083850312156113cf576113ce611ea6565b5b60006113dd858286016112ca565b92505060206113ee858286016113a3565b9150509250929050565b60006020828403121561140e5761140d611ea6565b5b600061141c848285016112f4565b91505092915050565b6000806040838503121561143c5761143b611ea6565b5b600083013567ffffffffffffffff81111561145a57611459611ea1565b5b61146685828601611309565b9250506020611477858286016112ca565b9150509250929050565b60006020828403121561149757611496611ea6565b5b60006114a5848285016113a3565b91505092915050565b6000806000606084860312156114c7576114c6611ea6565b5b60006114d5868287016113a3565b93505060206114e6868287016112df565b925050604084013567ffffffffffffffff81111561150757611506611ea1565b5b61151386828701611337565b9150509250925092565b6000611529838361158a565b60208301905092915050565b6000611541838361180c565b905092915050565b60006115558383611886565b905092915050565b61156681611cad565b82525050565b61157581611c65565b82525050565b61158481611c65565b82525050565b61159381611c53565b82525050565b6115a281611c53565b82525050565b60006115b382611bab565b6115bd8185611bfe565b93506115c883611b7b565b8060005b838110156115f95781516115e0888261151d565b97506115eb83611bd7565b9250506001810190506115cc565b5085935050505092915050565b600061161182611bb6565b61161b8185611c0f565b93508360208202850161162d85611b8b565b8060005b85811015611669578484038952815161164a8582611535565b945061165583611be4565b925060208a01995050600181019050611631565b50829750879550505050505092915050565b600061168682611bc1565b6116908185611c20565b9350836020820285016116a285611b9b565b8060005b858110156116de57848403895281516116bf8582611549565b94506116ca83611bf1565b925060208a019950506001810190506116a6565b50829750879550505050505092915050565b6116f981611c77565b82525050565b61170881611c77565b82525050565b600061171982611bcc565b6117238185611c31565b9350611733818560208601611cf2565b61173c81611eab565b840191505092915050565b600061175282611bcc565b61175c8185611c42565b935061176c818560208601611cf2565b61177581611eab565b840191505092915050565b600061178d601e83611c42565b915061179882611ebc565b602082019050919050565b60006117b0601583611c42565b91506117bb82611ee5565b602082019050919050565b60006117d3601b83611c42565b91506117de82611f0e565b602082019050919050565b60006117f6601d83611c42565b915061180182611f37565b602082019050919050565b60006040830160008301518482036000860152611829828261170e565b915050602083015161183e602086018261158a565b508091505092915050565b60006040830160008301518482036000860152611866828261170e565b915050602083015161187b602086018261158a565b508091505092915050565b600060c08301600083015161189e600086018261190f565b50602083015184820360208601526118b6828261180c565b91505060408301516118cb604086018261190f565b5060608301516118de606086018261156c565b5060808301516118f1608086018261190f565b5060a083015161190460a08601826116f0565b508091505092915050565b61191881611ca3565b82525050565b61192781611ca3565b82525050565b60006020820190506119426000830184611599565b92915050565b600060408201905061195d600083018561155d565b61196a602083018461191e565b9392505050565b6000602082019050818103600083015261198b81846115a8565b905092915050565b600060208201905081810360008301526119ad8184611606565b905092915050565b600060208201905081810360008301526119cf818461167b565b905092915050565b60006020820190506119ec60008301846116ff565b92915050565b60006040820190508181036000830152611a0c8185611747565b9050611a1b6020830184611599565b9392505050565b60006020820190508181036000830152611a3b81611780565b9050919050565b60006020820190508181036000830152611a5b816117a3565b9050919050565b60006020820190508181036000830152611a7b816117c6565b9050919050565b60006020820190508181036000830152611a9b816117e9565b9050919050565b6000602082019050611ab7600083018461191e565b92915050565b600060c082019050611ad2600083018961191e565b8181036020830152611ae48188611849565b9050611af3604083018761191e565b611b00606083018661157b565b611b0d608083018561191e565b611b1a60a08301846116ff565b979650505050505050565b6000611b2f611b40565b9050611b3b8282611d57565b919050565b6000604051905090565b600067ffffffffffffffff821115611b6557611b64611e5e565b5b611b6e82611eab565b9050602081019050919050565b6000819050602082019050919050565b6000819050602082019050919050565b6000819050602082019050919050565b600081519050919050565b600081519050919050565b600081519050919050565b600081519050919050565b6000602082019050919050565b6000602082019050919050565b6000602082019050919050565b600082825260208201905092915050565b600082825260208201905092915050565b600082825260208201905092915050565b600082825260208201905092915050565b600082825260208201905092915050565b6000611c5e82611c83565b9050919050565b6000611c7082611c83565b9050919050565b60008115159050919050565b600073ffffffffffffffffffffffffffffffffffffffff82169050919050565b6000819050919050565b6000611cb882611cbf565b9050919050565b6000611cca82611cd1565b9050919050565b6000611cdc82611c83565b9050919050565b82818337600083830152505050565b60005b83811015611d10578082015181840152602081019050611cf5565b83811115611d1f576000848401525b50505050565b60006002820490506001821680611d3d57607f821691505b60208210811415611d5157611d50611e00565b5b50919050565b611d6082611eab565b810181811067ffffffffffffffff82111715611d7f57611d7e611e5e565b5b80604052505050565b6000611d9382611ca3565b91507fffffffffffffffffffffffffffffffffffffffffffffffffffffffffffffffff821415611dc657611dc5611dd1565b5b600182019050919050565b7f4e487b7100000000000000000000000000000000000000000000000000000000600052601160045260246000fd5b7f4e487b7100000000000000000000000000000000000000000000000000000000600052602260045260246000fd5b7f4e487b7100000000000000000000000000000000000000000000000000000000600052603260045260246000fd5b7f4e487b7100000000000000000000000000000000000000000000000000000000600052604160045260246000fd5b600080fd5b600080fd5b600080fd5b600080fd5b600080fd5b600080fd5b6000601f19601f8301169050919050565b7f7472616e736665722068617320616c7265616479206265656e2073656e740000600082015250565b7f6f6e6c7920617070726f76657220616c6c6f7765640000000000000000000000600082015250565b7f696e76616c696420657263323020746f6b656e20616464726573730000000000600082015250565b7f63616e6e6f7420617070726f7665207472616e73666572207477696365000000600082015250565b611f6981611c53565b8114611f7457600080fd5b50565b611f8081611c65565b8114611f8b57600080fd5b50565b611f9781611c77565b8114611fa257600080fd5b50565b611fae81611ca3565b8114611fb957600080fd5b5056fea2646970667358221220389f70393db26186e58b6f8e5cf0a08d155dc8d79dfc783a32f3a7c534960b4f64736f6c63430008060033",
  "immutableReferences": {},
  "source": "// SPDX-License-Identifier: MIT\npragma solidity ^0.8.0;\n\nimport '@openzeppelin/contracts/token/ERC20/IERC20.sol';\n\n\ncontract Wallet {\n  mapping(address => bool) isApprover;\n  address[] public approvers;\n\n  uint public quorum;\n  string constant ETH = 'ETH';\n\n  struct Token {\n    string tokenSymbol;\n    address tokenAddress;\n  }\n\n  struct Transfer {\n    uint id;\n    Token token;\n    uint amount;\n    address payable to;\n    uint approvals;\n    bool sent;\n  }\n\n  Transfer[] public transfers;\n\n  Token[] public tokens;\n\n  mapping(address => mapping(uint => bool)) public approvals;\n  \n  constructor(address[] memory _approvers, uint _quorum) {\n    quorum = _quorum;\n    approvers = _approvers;\n\n    for (uint i = 0; i < _approvers.length; i++) {\n      isApprover[_approvers[i]] = true;\n    }\n\n    tokens.push(Token(ETH, address(0)));\n  }\n  \n  function addToken(string memory tokenSymbol, address tokenAddress) external onlyApprover() {\n    require(tokenAddress != address(0), \"invalid erc20 token address\");\n    tokens.push(Token(tokenSymbol, tokenAddress));\n  }\n\n  function getTokens() external view returns(Token[] memory) {\n    return tokens;\n  }\n\n  function getApprovers() external view returns(address[] memory) {\n    return approvers;\n  }\n  \n  function getTransfers() external view returns(Transfer[] memory) {\n    return transfers;\n  }\n  \n  function createTransfer(uint amount,  address payable to, Token memory token) external onlyApprover {\n    transfers.push(Transfer(\n      transfers.length,\n      token,\n      amount,\n      to,\n      0,\n      false\n    ));\n  }\n  \n  function approveTransfer(uint id) external onlyApprover {\n    require(transfers[id].sent == false, \"transfer has already been sent\");\n    require(approvals[msg.sender][id] == false, \"cannot approve transfer twice\");\n    \n    approvals[msg.sender][id] = true;\n    transfers[id].approvals++;\n    \n    // The moment the number of approvals reaches the quorum,\n    // Attempt to make the transfer\n    if(transfers[id].approvals >= quorum) {\n      transfers[id].sent = true;\n      address payable to = transfers[id].to;\n      uint amount = transfers[id].amount;\n\n      // ERC20\n      if (transfers[id].token.tokenAddress != address(0)) {\n        // Retrieve the contract address and call transferFrom\n        // IERC20(tokenToAddress[transfers[id].tokenSymbol].tokenAddress).transferFrom(\n        //   address(this),\n        //   to,\n        //   amount\n        // );  \n        // Wallet to send the amount of token to the address\n        // Can send?\n        IERC20(transfers[id].token.tokenAddress).transfer(\n          to,\n          amount\n        );  \n      } else {\n        // Transfer eth in wei\n        to.transfer(amount);\n      }\n    }\n  }\n  \n  receive() external payable {}\n  \n  modifier onlyApprover() {\n    require(isApprover[msg.sender] == true, \"only approver allowed\");\n    _;\n  }\n}\n",
  "sourcePath": "/Users/entergmode/crypto/wallet/contracts/Wallet.sol",
  "compiler": {
    "name": "solc",
    "version": "0.8.6+commit.11564f7e.Emscripten.clang"
  },
  "schemaVersion": "3.4.0",
  "updatedAt": "2021-06-24T19:30:53.736Z",
  "networkType": "ethereum",
  "devdoc": {
    "kind": "dev",
    "methods": {},
    "version": 1
  },
  "userdoc": {
    "kind": "user",
    "methods": {},
    "version": 1
  }
}