{
  "contractName": "Wallet",
  "abi": [
    {
      "inputs": [
        {
          "internalType": "address[]",
          "name": "_approvers",
          "type": "address[]"
        },
        {
          "internalType": "uint256",
          "name": "_quorum",
          "type": "uint256"
        }
      ],
      "stateMutability": "nonpayable",
      "type": "constructor"
    },
    {
      "inputs": [
        {
          "internalType": "address",
          "name": "",
          "type": "address"
        },
        {
          "internalType": "uint256",
          "name": "",
          "type": "uint256"
        }
      ],
      "name": "approvals",
      "outputs": [
        {
          "internalType": "bool",
          "name": "",
          "type": "bool"
        }
      ],
      "stateMutability": "view",
      "type": "function",
      "constant": true
    },
    {
      "inputs": [
        {
          "internalType": "uint256",
          "name": "",
          "type": "uint256"
        }
      ],
      "name": "approvers",
      "outputs": [
        {
          "internalType": "address",
          "name": "",
          "type": "address"
        }
      ],
      "stateMutability": "view",
      "type": "function",
      "constant": true
    },
    {
      "inputs": [],
      "name": "quorum",
      "outputs": [
        {
          "internalType": "uint256",
          "name": "",
          "type": "uint256"
        }
      ],
      "stateMutability": "view",
      "type": "function",
      "constant": true
    },
    {
      "inputs": [
        {
          "internalType": "uint256",
          "name": "",
          "type": "uint256"
        }
      ],
      "name": "tokens",
      "outputs": [
        {
          "internalType": "bytes32",
          "name": "tokenSymbol",
          "type": "bytes32"
        },
        {
          "internalType": "address",
          "name": "tokenAddress",
          "type": "address"
        }
      ],
      "stateMutability": "view",
      "type": "function",
      "constant": true
    },
    {
      "inputs": [
        {
          "internalType": "uint256",
          "name": "",
          "type": "uint256"
        }
      ],
      "name": "transfers",
      "outputs": [
        {
          "internalType": "uint256",
          "name": "id",
          "type": "uint256"
        },
        {
          "components": [
            {
              "internalType": "bytes32",
              "name": "tokenSymbol",
              "type": "bytes32"
            },
            {
              "internalType": "address",
              "name": "tokenAddress",
              "type": "address"
            }
          ],
          "internalType": "struct Wallet.Token",
          "name": "token",
          "type": "tuple"
        },
        {
          "internalType": "uint256",
          "name": "amount",
          "type": "uint256"
        },
        {
          "internalType": "address payable",
          "name": "to",
          "type": "address"
        },
        {
          "internalType": "uint256",
          "name": "approvals",
          "type": "uint256"
        },
        {
          "internalType": "bool",
          "name": "sent",
          "type": "bool"
        }
      ],
      "stateMutability": "view",
      "type": "function",
      "constant": true
    },
    {
      "stateMutability": "payable",
      "type": "receive",
      "payable": true
    },
    {
      "inputs": [],
      "name": "getTokens",
      "outputs": [
        {
          "components": [
            {
              "internalType": "bytes32",
              "name": "tokenSymbol",
              "type": "bytes32"
            },
            {
              "internalType": "address",
              "name": "tokenAddress",
              "type": "address"
            }
          ],
          "internalType": "struct Wallet.Token[]",
          "name": "",
          "type": "tuple[]"
        }
      ],
      "stateMutability": "view",
      "type": "function",
      "constant": true
    },
    {
      "inputs": [],
      "name": "getApprovers",
      "outputs": [
        {
          "internalType": "address[]",
          "name": "",
          "type": "address[]"
        }
      ],
      "stateMutability": "view",
      "type": "function",
      "constant": true
    },
    {
      "inputs": [],
      "name": "getTransfers",
      "outputs": [
        {
          "components": [
            {
              "internalType": "uint256",
              "name": "id",
              "type": "uint256"
            },
            {
              "components": [
                {
                  "internalType": "bytes32",
                  "name": "tokenSymbol",
                  "type": "bytes32"
                },
                {
                  "internalType": "address",
                  "name": "tokenAddress",
                  "type": "address"
                }
              ],
              "internalType": "struct Wallet.Token",
              "name": "token",
              "type": "tuple"
            },
            {
              "internalType": "uint256",
              "name": "amount",
              "type": "uint256"
            },
            {
              "internalType": "address payable",
              "name": "to",
              "type": "address"
            },
            {
              "internalType": "uint256",
              "name": "approvals",
              "type": "uint256"
            },
            {
              "internalType": "bool",
              "name": "sent",
              "type": "bool"
            }
          ],
          "internalType": "struct Wallet.Transfer[]",
          "name": "",
          "type": "tuple[]"
        }
      ],
      "stateMutability": "view",
      "type": "function",
      "constant": true
    },
    {
      "inputs": [
        {
          "internalType": "bytes32",
          "name": "tokenSymbol",
          "type": "bytes32"
        },
        {
          "internalType": "address",
          "name": "tokenAddress",
          "type": "address"
        }
      ],
      "name": "addToken",
      "outputs": [],
      "stateMutability": "nonpayable",
      "type": "function"
    },
    {
      "inputs": [
        {
          "internalType": "uint256",
          "name": "amount",
          "type": "uint256"
        },
        {
          "internalType": "address payable",
          "name": "to",
          "type": "address"
        },
        {
          "components": [
            {
              "internalType": "bytes32",
              "name": "tokenSymbol",
              "type": "bytes32"
            },
            {
              "internalType": "address",
              "name": "tokenAddress",
              "type": "address"
            }
          ],
          "internalType": "struct Wallet.Token",
          "name": "token",
          "type": "tuple"
        }
      ],
      "name": "createTransfer",
      "outputs": [],
      "stateMutability": "nonpayable",
      "type": "function"
    },
    {
      "inputs": [
        {
          "internalType": "uint256",
          "name": "id",
          "type": "uint256"
        }
      ],
      "name": "approveTransfer",
      "outputs": [],
      "stateMutability": "nonpayable",
      "type": "function"
    }
  ],
  "bytecode": "0x60806040523480156200001157600080fd5b50604051620020863803806200208683398181016040528101906200003791906200034b565b80600281905550816001908051906020019062000056929190620001c1565b5060005b8251811015620000ee5760016000808584815181106200007f576200007e620004fa565b5b602002602001015173ffffffffffffffffffffffffffffffffffffffff1673ffffffffffffffffffffffffffffffffffffffff16815260200190815260200160002060006101000a81548160ff0219169083151502179055508080620000e5906200047d565b9150506200005a565b50600460405180604001604052807f45544800000000000000000000000000000000000000000000000000000000008152602001600073ffffffffffffffffffffffffffffffffffffffff1681525090806001815401808255809150506001900390600052602060002090600202016000909190919091506000820151816000015560208201518160010160006101000a81548173ffffffffffffffffffffffffffffffffffffffff021916908373ffffffffffffffffffffffffffffffffffffffff16021790555050505050620005b1565b8280548282559060005260206000209081019282156200023d579160200282015b828111156200023c5782518260006101000a81548173ffffffffffffffffffffffffffffffffffffffff021916908373ffffffffffffffffffffffffffffffffffffffff16021790555091602001919060010190620001e2565b5b5090506200024c919062000250565b5090565b5b808211156200026b57600081600090555060010162000251565b5090565b6000620002866200028084620003da565b620003b1565b90508083825260208201905082856020860282011115620002ac57620002ab6200055d565b5b60005b85811015620002e05781620002c58882620002ea565b845260208401935060208301925050600181019050620002af565b5050509392505050565b600081519050620002fb816200057d565b92915050565b600082601f83011262000319576200031862000558565b5b81516200032b8482602086016200026f565b91505092915050565b600081519050620003458162000597565b92915050565b6000806040838503121562000365576200036462000567565b5b600083015167ffffffffffffffff81111562000386576200038562000562565b5b620003948582860162000301565b9250506020620003a78582860162000334565b9150509250929050565b6000620003bd620003d0565b9050620003cb828262000447565b919050565b6000604051905090565b600067ffffffffffffffff821115620003f857620003f762000529565b5b602082029050602081019050919050565b600062000416826200041d565b9050919050565b600073ffffffffffffffffffffffffffffffffffffffff82169050919050565b6000819050919050565b62000452826200056c565b810181811067ffffffffffffffff8211171562000474576200047362000529565b5b80604052505050565b60006200048a826200043d565b91507fffffffffffffffffffffffffffffffffffffffffffffffffffffffffffffffff821415620004c057620004bf620004cb565b5b600182019050919050565b7f4e487b7100000000000000000000000000000000000000000000000000000000600052601160045260246000fd5b7f4e487b7100000000000000000000000000000000000000000000000000000000600052603260045260246000fd5b7f4e487b7100000000000000000000000000000000000000000000000000000000600052604160045260246000fd5b600080fd5b600080fd5b600080fd5b600080fd5b6000601f19601f8301169050919050565b620005888162000409565b81146200059457600080fd5b50565b620005a2816200043d565b8114620005ae57600080fd5b50565b611ac580620005c16000396000f3fe6080604052600436106100a05760003560e01c80639776aacf116100645780639776aacf146101ad578063aa6ca808146101d6578063cacca4a014610201578063d3650fb81461022a578063df3aab8b14610267578063ffabc67314610290576100a7565b80631703a018146100ac5780632f65142c146100d75780634f64b2be146101025780636cb3e8ef146101405780639377d7111461016b576100a7565b366100a757005b600080fd5b3480156100b857600080fd5b506100c16102cd565b6040516100ce919061165f565b60405180910390f35b3480156100e357600080fd5b506100ec6102d3565b6040516100f99190611579565b60405180910390f35b34801561010e57600080fd5b5061012960048036038101906101249190611105565b610435565b6040516101379291906115b6565b60405180910390f35b34801561014c57600080fd5b50610155610489565b6040516101629190611535565b60405180910390f35b34801561017757600080fd5b50610192600480360381019061018d9190611105565b610517565b6040516101a49695949392919061167a565b60405180910390f35b3480156101b957600080fd5b506101d460048036038101906101cf91906110c5565b6105fa565b005b3480156101e257600080fd5b506101eb6107a9565b6040516101f89190611557565b60405180910390f35b34801561020d57600080fd5b5061022860048036038101906102239190611105565b610868565b005b34801561023657600080fd5b50610251600480360381019061024c9190611105565b610d40565b60405161025e91906114f1565b60405180910390f35b34801561027357600080fd5b5061028e60048036038101906102899190611132565b610d7f565b005b34801561029c57600080fd5b506102b760048036038101906102b29190611058565b610f70565b6040516102c4919061159b565b60405180910390f35b60025481565b60606003805480602002602001604051908101604052809291908181526020016000905b8282101561042c57838290600052602060002090600702016040518060c00160405290816000820154815260200160018201604051806040016040529081600082015481526020016001820160009054906101000a900473ffffffffffffffffffffffffffffffffffffffff1673ffffffffffffffffffffffffffffffffffffffff1673ffffffffffffffffffffffffffffffffffffffff16815250508152602001600382015481526020016004820160009054906101000a900473ffffffffffffffffffffffffffffffffffffffff1673ffffffffffffffffffffffffffffffffffffffff1673ffffffffffffffffffffffffffffffffffffffff168152602001600582015481526020016006820160009054906101000a900460ff161515151581525050815260200190600101906102f7565b50505050905090565b6004818154811061044557600080fd5b90600052602060002090600202016000915090508060000154908060010160009054906101000a900473ffffffffffffffffffffffffffffffffffffffff16905082565b6060600180548060200260200160405190810160405280929190818152602001828054801561050d57602002820191906000526020600020905b8160009054906101000a900473ffffffffffffffffffffffffffffffffffffffff1673ffffffffffffffffffffffffffffffffffffffff16815260200190600101908083116104c3575b5050505050905090565b6003818154811061052757600080fd5b906000526020600020906007020160009150905080600001549080600101604051806040016040529081600082015481526020016001820160009054906101000a900473ffffffffffffffffffffffffffffffffffffffff1673ffffffffffffffffffffffffffffffffffffffff1673ffffffffffffffffffffffffffffffffffffffff1681525050908060030154908060040160009054906101000a900473ffffffffffffffffffffffffffffffffffffffff16908060050154908060060160009054906101000a900460ff16905086565b600115156000803373ffffffffffffffffffffffffffffffffffffffff1673ffffffffffffffffffffffffffffffffffffffff16815260200190815260200160002060009054906101000a900460ff1615151461068c576040517f08c379a0000000000000000000000000000000000000000000000000000000008152600401610683906115ff565b60405180910390fd5b600073ffffffffffffffffffffffffffffffffffffffff168173ffffffffffffffffffffffffffffffffffffffff1614156106fc576040517f08c379a00000000000000000000000000000000000000000000000000000000081526004016106f39061161f565b60405180910390fd5b600460405180604001604052808481526020018373ffffffffffffffffffffffffffffffffffffffff1681525090806001815401808255809150506001900390600052602060002090600202016000909190919091506000820151816000015560208201518160010160006101000a81548173ffffffffffffffffffffffffffffffffffffffff021916908373ffffffffffffffffffffffffffffffffffffffff16021790555050505050565b60606004805480602002602001604051908101604052809291908181526020016000905b8282101561085f5783829060005260206000209060020201604051806040016040529081600082015481526020016001820160009054906101000a900473ffffffffffffffffffffffffffffffffffffffff1673ffffffffffffffffffffffffffffffffffffffff1673ffffffffffffffffffffffffffffffffffffffff1681525050815260200190600101906107cd565b50505050905090565b600115156000803373ffffffffffffffffffffffffffffffffffffffff1673ffffffffffffffffffffffffffffffffffffffff16815260200190815260200160002060009054906101000a900460ff161515146108fa576040517f08c379a00000000000000000000000000000000000000000000000000000000081526004016108f1906115ff565b60405180910390fd5b6000151560038281548110610912576109116118ff565b5b906000526020600020906007020160060160009054906101000a900460ff16151514610973576040517f08c379a000000000000000000000000000000000000000000000000000000000815260040161096a906115df565b60405180910390fd5b60001515600560003373ffffffffffffffffffffffffffffffffffffffff1673ffffffffffffffffffffffffffffffffffffffff168152602001908152602001600020600083815260200190815260200160002060009054906101000a900460ff16151514610a17576040517f08c379a0000000000000000000000000000000000000000000000000000000008152600401610a0e9061163f565b60405180910390fd5b6001600560003373ffffffffffffffffffffffffffffffffffffffff1673ffffffffffffffffffffffffffffffffffffffff168152602001908152602001600020600083815260200190815260200160002060006101000a81548160ff02191690831515021790555060038181548110610a9457610a936118ff565b5b90600052602060002090600702016005016000815480929190610ab690611887565b919050555060025460038281548110610ad257610ad16118ff565b5b90600052602060002090600702016005015410610d3d57600160038281548110610aff57610afe6118ff565b5b906000526020600020906007020160060160006101000a81548160ff021916908315150217905550600060038281548110610b3d57610b3c6118ff565b5b906000526020600020906007020160040160009054906101000a900473ffffffffffffffffffffffffffffffffffffffff169050600060038381548110610b8757610b866118ff565b5b9060005260206000209060070201600301549050600073ffffffffffffffffffffffffffffffffffffffff1660038481548110610bc757610bc66118ff565b5b906000526020600020906007020160010160010160009054906101000a900473ffffffffffffffffffffffffffffffffffffffff1673ffffffffffffffffffffffffffffffffffffffff1614610cf25760038381548110610c2b57610c2a6118ff565b5b906000526020600020906007020160010160010160009054906101000a900473ffffffffffffffffffffffffffffffffffffffff1673ffffffffffffffffffffffffffffffffffffffff1663a9059cbb83836040518363ffffffff1660e01b8152600401610c9a92919061150c565b602060405180830381600087803b158015610cb457600080fd5b505af1158015610cc8573d6000803e3d6000fd5b505050506040513d601f19601f82011682018060405250810190610cec9190611098565b50610d3a565b8173ffffffffffffffffffffffffffffffffffffffff166108fc829081150290604051600060405180830381858888f19350505050158015610d38573d6000803e3d6000fd5b505b50505b50565b60018181548110610d5057600080fd5b906000526020600020016000915054906101000a900473ffffffffffffffffffffffffffffffffffffffff1681565b600115156000803373ffffffffffffffffffffffffffffffffffffffff1673ffffffffffffffffffffffffffffffffffffffff16815260200190815260200160002060009054906101000a900460ff16151514610e11576040517f08c379a0000000000000000000000000000000000000000000000000000000008152600401610e08906115ff565b60405180910390fd5b60036040518060c0016040528060038054905081526020018381526020018581526020018473ffffffffffffffffffffffffffffffffffffffff16815260200160008152602001600015158152509080600181540180825580915050600190039060005260206000209060070201600090919091909150600082015181600001556020820151816001016000820151816000015560208201518160010160006101000a81548173ffffffffffffffffffffffffffffffffffffffff021916908373ffffffffffffffffffffffffffffffffffffffff16021790555050506040820151816003015560608201518160040160006101000a81548173ffffffffffffffffffffffffffffffffffffffff021916908373ffffffffffffffffffffffffffffffffffffffff1602179055506080820151816005015560a08201518160060160006101000a81548160ff0219169083151502179055505050505050565b60056020528160005260406000206020528060005260406000206000915091509054906101000a900460ff1681565b600081359050610fae81611a1c565b92915050565b600081359050610fc381611a33565b92915050565b600081519050610fd881611a4a565b92915050565b600081359050610fed81611a61565b92915050565b6000604082840312156110095761100861195d565b5b61101360406116db565b9050600061102384828501610fde565b600083015250602061103784828501610f9f565b60208301525092915050565b60008135905061105281611a78565b92915050565b6000806040838503121561106f5761106e611962565b5b600061107d85828601610f9f565b925050602061108e85828601611043565b9150509250929050565b6000602082840312156110ae576110ad611962565b5b60006110bc84828501610fc9565b91505092915050565b600080604083850312156110dc576110db611962565b5b60006110ea85828601610fde565b92505060206110fb85828601610f9f565b9150509250929050565b60006020828403121561111b5761111a611962565b5b600061112984828501611043565b91505092915050565b60008060006080848603121561114b5761114a611962565b5b600061115986828701611043565b935050602061116a86828701610fb4565b925050604061117b86828701610ff3565b9150509250925092565b600061119183836111fa565b60208301905092915050565b60006111a983836113fa565b60408301905092915050565b60006111c18383611458565b60e08301905092915050565b6111d681611820565b82525050565b6111e5816117ce565b82525050565b6111f4816117ce565b82525050565b611203816117bc565b82525050565b611212816117bc565b82525050565b600061122382611730565b61122d8185611778565b935061123883611700565b8060005b838110156112695781516112508882611185565b975061125b83611751565b92505060018101905061123c565b5085935050505092915050565b60006112818261173b565b61128b8185611789565b935061129683611710565b8060005b838110156112c75781516112ae888261119d565b97506112b98361175e565b92505060018101905061129a565b5085935050505092915050565b60006112df82611746565b6112e9818561179a565b93506112f483611720565b8060005b8381101561132557815161130c88826111b5565b97506113178361176b565b9250506001810190506112f8565b5085935050505092915050565b61133b816117e0565b82525050565b61134a816117e0565b82525050565b611359816117ec565b82525050565b611368816117ec565b82525050565b600061137b601e836117ab565b915061138682611978565b602082019050919050565b600061139e6015836117ab565b91506113a9826119a1565b602082019050919050565b60006113c16018836117ab565b91506113cc826119ca565b602082019050919050565b60006113e4601d836117ab565b91506113ef826119f3565b602082019050919050565b6040820160008201516114106000850182611350565b50602082015161142360208501826111fa565b50505050565b60408201600082015161143f6000850182611350565b50602082015161145260208501826111fa565b50505050565b60e08201600082015161146e60008501826114d3565b50602082015161148160208501826113fa565b50604082015161149460608501826114d3565b5060608201516114a760808501826111dc565b5060808201516114ba60a08501826114d3565b5060a08201516114cd60c0850182611332565b50505050565b6114dc81611816565b82525050565b6114eb81611816565b82525050565b60006020820190506115066000830184611209565b92915050565b600060408201905061152160008301856111cd565b61152e60208301846114e2565b9392505050565b6000602082019050818103600083015261154f8184611218565b905092915050565b600060208201905081810360008301526115718184611276565b905092915050565b6000602082019050818103600083015261159381846112d4565b905092915050565b60006020820190506115b06000830184611341565b92915050565b60006040820190506115cb600083018561135f565b6115d86020830184611209565b9392505050565b600060208201905081810360008301526115f88161136e565b9050919050565b6000602082019050818103600083015261161881611391565b9050919050565b60006020820190508181036000830152611638816113b4565b9050919050565b60006020820190508181036000830152611658816113d7565b9050919050565b600060208201905061167460008301846114e2565b92915050565b600060e08201905061168f60008301896114e2565b61169c6020830188611429565b6116a960608301876114e2565b6116b660808301866111eb565b6116c360a08301856114e2565b6116d060c0830184611341565b979650505050505050565b60006116e56116f6565b90506116f18282611856565b919050565b6000604051905090565b6000819050602082019050919050565b6000819050602082019050919050565b6000819050602082019050919050565b600081519050919050565b600081519050919050565b600081519050919050565b6000602082019050919050565b6000602082019050919050565b6000602082019050919050565b600082825260208201905092915050565b600082825260208201905092915050565b600082825260208201905092915050565b600082825260208201905092915050565b60006117c7826117f6565b9050919050565b60006117d9826117f6565b9050919050565b60008115159050919050565b6000819050919050565b600073ffffffffffffffffffffffffffffffffffffffff82169050919050565b6000819050919050565b600061182b82611832565b9050919050565b600061183d82611844565b9050919050565b600061184f826117f6565b9050919050565b61185f82611967565b810181811067ffffffffffffffff8211171561187e5761187d61192e565b5b80604052505050565b600061189282611816565b91507fffffffffffffffffffffffffffffffffffffffffffffffffffffffffffffffff8214156118c5576118c46118d0565b5b600182019050919050565b7f4e487b7100000000000000000000000000000000000000000000000000000000600052601160045260246000fd5b7f4e487b7100000000000000000000000000000000000000000000000000000000600052603260045260246000fd5b7f4e487b7100000000000000000000000000000000000000000000000000000000600052604160045260246000fd5b600080fd5b600080fd5b6000601f19601f8301169050919050565b7f7472616e736665722068617320616c7265616479206265656e2073656e740000600082015250565b7f6f6e6c7920617070726f76657220616c6c6f7765640000000000000000000000600082015250565b7f7a65726f2061647265737320697320666f7262696464656e0000000000000000600082015250565b7f63616e6e6f7420617070726f7665207472616e73666572207477696365000000600082015250565b611a25816117bc565b8114611a3057600080fd5b50565b611a3c816117ce565b8114611a4757600080fd5b50565b611a53816117e0565b8114611a5e57600080fd5b50565b611a6a816117ec565b8114611a7557600080fd5b50565b611a8181611816565b8114611a8c57600080fd5b5056fea2646970667358221220cd48b98b795b4ba3beca19c2189b0f6a4c0bcd52a5f3890207f9c72a3a08082464736f6c63430008060033",
  "immutableReferences": {},
  "source": "// SPDX-License-Identifier: MIT\npragma solidity ^0.8.0;\n\nimport '@openzeppelin/contracts/token/ERC20/IERC20.sol';\n\n\ncontract Wallet {\n  mapping(address => bool) isApprover;\n  address[] public approvers;\n\n  uint public quorum;\n  bytes32 constant ETH = 'ETH';\n\n  struct Token {\n    bytes32 tokenSymbol;\n    address tokenAddress;\n  }\n\n  struct Transfer {\n    uint id;\n    Token token;\n    uint amount;\n    address payable to;\n    uint approvals;\n    bool sent;\n  }\n\n  Transfer[] public transfers;\n\n  // mapping(address => bytes32) isTokenSupported;\n  Token[] public tokens;\n\n  mapping(address => mapping(uint => bool)) public approvals;\n  \n  constructor(address[] memory _approvers, uint _quorum) {\n    quorum = _quorum;\n    approvers = _approvers;\n\n    for (uint i = 0; i < _approvers.length; i++) {\n      isApprover[_approvers[i]] = true;\n    }\n\n    tokens.push(Token(ETH, address(0)));\n    // isTokenSupported[address(0)] = ETH;\n  }\n\n  function getTokens() external view returns(Token[] memory) {\n    return tokens;\n  }\n\n  function getApprovers() external view returns(address[] memory) {\n    return approvers;\n  }\n  \n  function getTransfers() external view returns(Transfer[] memory) {\n    return transfers;\n  }\n\n  function addToken(bytes32 tokenSymbol, address tokenAddress) external onlyApprover() {\n    require(tokenAddress != address(0), 'zero adress is forbidden');\n    tokens.push(Token(tokenSymbol, tokenAddress));\n  }\n\n  // function createTransfer(uint amount,  address payable to, Token memory token) external onlyApprover() tokenSupport(token) {\n  function createTransfer(uint amount,  address payable to, Token memory token) external onlyApprover() {\n    transfers.push(Transfer(\n      transfers.length,\n      token,\n      amount,\n      to,\n      0,\n      false\n    ));\n  }\n  \n  function approveTransfer(uint id) external onlyApprover() {\n    require(transfers[id].sent == false, 'transfer has already been sent');\n    require(approvals[msg.sender][id] == false, 'cannot approve transfer twice');\n    \n    approvals[msg.sender][id] = true;\n    transfers[id].approvals++;\n    \n    // The moment the number of approvals reaches the quorum,\n    // attempt to make the transfer\n    if(transfers[id].approvals >= quorum) {\n      transfers[id].sent = true;\n      address payable to = transfers[id].to;\n      uint amount = transfers[id].amount;\n\n      // ERC20\n      if (transfers[id].token.tokenAddress != address(0)) {\n        IERC20(transfers[id].token.tokenAddress).transfer(\n          to,\n          amount\n        );\n      // } else if (transfers[id].token.tokenSymbol == ETH) {\n      } else {\n        to.transfer(amount);\n      }\n\n      // Should never happen, as the token is unidentified\n      // assert(true);\n    }\n  }\n  \n  receive() external payable {}\n  \n  modifier onlyApprover() {\n    require(isApprover[msg.sender] == true, 'only approver allowed');\n    _;\n  }\n\n  // modifier tokenSupport(Token memory token) {\n  //   require(isTokenSupported[token.tokenAddress] == token.tokenSymbol, 'token not supported');\n  //   _;\n  // }\n}\n",
  "sourcePath": "/Users/entergmode/crypto/wallet/contracts/Wallet.sol",
  "compiler": {
    "name": "solc",
    "version": "0.8.6+commit.11564f7e.Emscripten.clang"
  },
  "schemaVersion": "3.4.0",
  "updatedAt": "2021-06-25T07:24:34.243Z",
  "networkType": "ethereum",
  "devdoc": {
    "kind": "dev",
    "methods": {},
    "version": 1
  },
  "userdoc": {
    "kind": "user",
    "methods": {},
    "version": 1
  }
}