{
  "contractName": "Wallet",
  "abi": [
    {
      "inputs": [
        {
          "internalType": "address[]",
          "name": "_approvers",
          "type": "address[]"
        },
        {
          "internalType": "uint256",
          "name": "_quorum",
          "type": "uint256"
        }
      ],
      "stateMutability": "nonpayable",
      "type": "constructor"
    },
    {
      "inputs": [
        {
          "internalType": "address",
          "name": "",
          "type": "address"
        },
        {
          "internalType": "uint256",
          "name": "",
          "type": "uint256"
        }
      ],
      "name": "approvals",
      "outputs": [
        {
          "internalType": "bool",
          "name": "",
          "type": "bool"
        }
      ],
      "stateMutability": "view",
      "type": "function",
      "constant": true
    },
    {
      "inputs": [
        {
          "internalType": "uint256",
          "name": "",
          "type": "uint256"
        }
      ],
      "name": "approvers",
      "outputs": [
        {
          "internalType": "address",
          "name": "",
          "type": "address"
        }
      ],
      "stateMutability": "view",
      "type": "function",
      "constant": true
    },
    {
      "inputs": [],
      "name": "quorum",
      "outputs": [
        {
          "internalType": "uint256",
          "name": "",
          "type": "uint256"
        }
      ],
      "stateMutability": "view",
      "type": "function",
      "constant": true
    },
    {
      "inputs": [
        {
          "internalType": "uint256",
          "name": "",
          "type": "uint256"
        }
      ],
      "name": "tokens",
      "outputs": [
        {
          "internalType": "bytes32",
          "name": "tokenSymbol",
          "type": "bytes32"
        },
        {
          "internalType": "address",
          "name": "tokenAddress",
          "type": "address"
        }
      ],
      "stateMutability": "view",
      "type": "function",
      "constant": true
    },
    {
      "inputs": [
        {
          "internalType": "uint256",
          "name": "",
          "type": "uint256"
        }
      ],
      "name": "transfers",
      "outputs": [
        {
          "internalType": "uint256",
          "name": "id",
          "type": "uint256"
        },
        {
          "components": [
            {
              "internalType": "bytes32",
              "name": "tokenSymbol",
              "type": "bytes32"
            },
            {
              "internalType": "address",
              "name": "tokenAddress",
              "type": "address"
            }
          ],
          "internalType": "struct Wallet.Token",
          "name": "token",
          "type": "tuple"
        },
        {
          "internalType": "uint256",
          "name": "amount",
          "type": "uint256"
        },
        {
          "internalType": "address payable",
          "name": "to",
          "type": "address"
        },
        {
          "internalType": "uint256",
          "name": "approvals",
          "type": "uint256"
        },
        {
          "internalType": "bool",
          "name": "sent",
          "type": "bool"
        }
      ],
      "stateMutability": "view",
      "type": "function",
      "constant": true
    },
    {
      "stateMutability": "payable",
      "type": "receive",
      "payable": true
    },
    {
      "inputs": [],
      "name": "getTokens",
      "outputs": [
        {
          "components": [
            {
              "internalType": "bytes32",
              "name": "tokenSymbol",
              "type": "bytes32"
            },
            {
              "internalType": "address",
              "name": "tokenAddress",
              "type": "address"
            }
          ],
          "internalType": "struct Wallet.Token[]",
          "name": "",
          "type": "tuple[]"
        }
      ],
      "stateMutability": "view",
      "type": "function",
      "constant": true
    },
    {
      "inputs": [],
      "name": "getApprovers",
      "outputs": [
        {
          "internalType": "address[]",
          "name": "",
          "type": "address[]"
        }
      ],
      "stateMutability": "view",
      "type": "function",
      "constant": true
    },
    {
      "inputs": [],
      "name": "getTransfers",
      "outputs": [
        {
          "components": [
            {
              "internalType": "uint256",
              "name": "id",
              "type": "uint256"
            },
            {
              "components": [
                {
                  "internalType": "bytes32",
                  "name": "tokenSymbol",
                  "type": "bytes32"
                },
                {
                  "internalType": "address",
                  "name": "tokenAddress",
                  "type": "address"
                }
              ],
              "internalType": "struct Wallet.Token",
              "name": "token",
              "type": "tuple"
            },
            {
              "internalType": "uint256",
              "name": "amount",
              "type": "uint256"
            },
            {
              "internalType": "address payable",
              "name": "to",
              "type": "address"
            },
            {
              "internalType": "uint256",
              "name": "approvals",
              "type": "uint256"
            },
            {
              "internalType": "bool",
              "name": "sent",
              "type": "bool"
            }
          ],
          "internalType": "struct Wallet.Transfer[]",
          "name": "",
          "type": "tuple[]"
        }
      ],
      "stateMutability": "view",
      "type": "function",
      "constant": true
    },
    {
      "inputs": [
        {
          "internalType": "bytes32",
          "name": "tokenSymbol",
          "type": "bytes32"
        },
        {
          "internalType": "address",
          "name": "tokenAddress",
          "type": "address"
        }
      ],
      "name": "addToken",
      "outputs": [],
      "stateMutability": "nonpayable",
      "type": "function"
    },
    {
      "inputs": [
        {
          "internalType": "uint256",
          "name": "amount",
          "type": "uint256"
        },
        {
          "internalType": "address payable",
          "name": "to",
          "type": "address"
        },
        {
          "components": [
            {
              "internalType": "bytes32",
              "name": "tokenSymbol",
              "type": "bytes32"
            },
            {
              "internalType": "address",
              "name": "tokenAddress",
              "type": "address"
            }
          ],
          "internalType": "struct Wallet.Token",
          "name": "token",
          "type": "tuple"
        }
      ],
      "name": "createTransfer",
      "outputs": [],
      "stateMutability": "nonpayable",
      "type": "function"
    },
    {
      "inputs": [
        {
          "internalType": "uint256",
          "name": "id",
          "type": "uint256"
        }
      ],
      "name": "approveTransfer",
      "outputs": [],
      "stateMutability": "nonpayable",
      "type": "function"
    }
  ],
  "bytecode": "0x60806040523480156200001157600080fd5b50604051620022b9380380620022b98339818101604052810190620000379190620003af565b8060028190555081600190805190602001906200005692919062000225565b5060005b8251811015620000ee5760016000808584815181106200007f576200007e6200055e565b5b602002602001015173ffffffffffffffffffffffffffffffffffffffff1673ffffffffffffffffffffffffffffffffffffffff16815260200190815260200160002060006101000a81548160ff0219169083151502179055508080620000e590620004e1565b9150506200005a565b50600560405180604001604052807f45544800000000000000000000000000000000000000000000000000000000008152602001600073ffffffffffffffffffffffffffffffffffffffff1681525090806001815401808255809150506001900390600052602060002090600202016000909190919091506000820151816000015560208201518160010160006101000a81548173ffffffffffffffffffffffffffffffffffffffff021916908373ffffffffffffffffffffffffffffffffffffffff16021790555050507f4554480000000000000000000000000000000000000000000000000000000000600460008073ffffffffffffffffffffffffffffffffffffffff1673ffffffffffffffffffffffffffffffffffffffff16815260200190815260200160002081905550505062000615565b828054828255906000526020600020908101928215620002a1579160200282015b82811115620002a05782518260006101000a81548173ffffffffffffffffffffffffffffffffffffffff021916908373ffffffffffffffffffffffffffffffffffffffff1602179055509160200191906001019062000246565b5b509050620002b09190620002b4565b5090565b5b80821115620002cf576000816000905550600101620002b5565b5090565b6000620002ea620002e4846200043e565b62000415565b9050808382526020820190508285602086028201111562000310576200030f620005c1565b5b60005b858110156200034457816200032988826200034e565b84526020840193506020830192505060018101905062000313565b5050509392505050565b6000815190506200035f81620005e1565b92915050565b600082601f8301126200037d576200037c620005bc565b5b81516200038f848260208601620002d3565b91505092915050565b600081519050620003a981620005fb565b92915050565b60008060408385031215620003c957620003c8620005cb565b5b600083015167ffffffffffffffff811115620003ea57620003e9620005c6565b5b620003f88582860162000365565b92505060206200040b8582860162000398565b9150509250929050565b60006200042162000434565b90506200042f8282620004ab565b919050565b6000604051905090565b600067ffffffffffffffff8211156200045c576200045b6200058d565b5b602082029050602081019050919050565b60006200047a8262000481565b9050919050565b600073ffffffffffffffffffffffffffffffffffffffff82169050919050565b6000819050919050565b620004b682620005d0565b810181811067ffffffffffffffff82111715620004d857620004d76200058d565b5b80604052505050565b6000620004ee82620004a1565b91507fffffffffffffffffffffffffffffffffffffffffffffffffffffffffffffffff8214156200052457620005236200052f565b5b600182019050919050565b7f4e487b7100000000000000000000000000000000000000000000000000000000600052601160045260246000fd5b7f4e487b7100000000000000000000000000000000000000000000000000000000600052603260045260246000fd5b7f4e487b7100000000000000000000000000000000000000000000000000000000600052604160045260246000fd5b600080fd5b600080fd5b600080fd5b600080fd5b6000601f19601f8301169050919050565b620005ec816200046d565b8114620005f857600080fd5b50565b6200060681620004a1565b81146200061257600080fd5b50565b611c9480620006256000396000f3fe6080604052600436106100a05760003560e01c80639776aacf116100645780639776aacf146101ad578063aa6ca808146101d6578063cacca4a014610201578063d3650fb81461022a578063df3aab8b14610267578063ffabc67314610290576100a7565b80631703a018146100ac5780632f65142c146100d75780634f64b2be146101025780636cb3e8ef146101405780639377d7111461016b576100a7565b366100a757005b600080fd5b3480156100b857600080fd5b506100c16102cd565b6040516100ce91906117d6565b60405180910390f35b3480156100e357600080fd5b506100ec6102d3565b6040516100f991906116d0565b60405180910390f35b34801561010e57600080fd5b5061012960048036038101906101249190611239565b610435565b60405161013792919061170d565b60405180910390f35b34801561014c57600080fd5b50610155610489565b604051610162919061168c565b60405180910390f35b34801561017757600080fd5b50610192600480360381019061018d9190611239565b610517565b6040516101a4969594939291906117f1565b60405180910390f35b3480156101b957600080fd5b506101d460048036038101906101cf91906111f9565b6105fa565b005b3480156101e257600080fd5b506101eb6107ed565b6040516101f891906116ae565b60405180910390f35b34801561020d57600080fd5b5061022860048036038101906102239190611239565b6108ac565b005b34801561023657600080fd5b50610251600480360381019061024c9190611239565b610de9565b60405161025e9190611648565b60405180910390f35b34801561027357600080fd5b5061028e60048036038101906102899190611266565b610e28565b005b34801561029c57600080fd5b506102b760048036038101906102b2919061118c565b6110a4565b6040516102c491906116f2565b60405180910390f35b60025481565b60606003805480602002602001604051908101604052809291908181526020016000905b8282101561042c57838290600052602060002090600702016040518060c00160405290816000820154815260200160018201604051806040016040529081600082015481526020016001820160009054906101000a900473ffffffffffffffffffffffffffffffffffffffff1673ffffffffffffffffffffffffffffffffffffffff1673ffffffffffffffffffffffffffffffffffffffff16815250508152602001600382015481526020016004820160009054906101000a900473ffffffffffffffffffffffffffffffffffffffff1673ffffffffffffffffffffffffffffffffffffffff1673ffffffffffffffffffffffffffffffffffffffff168152602001600582015481526020016006820160009054906101000a900460ff161515151581525050815260200190600101906102f7565b50505050905090565b6005818154811061044557600080fd5b90600052602060002090600202016000915090508060000154908060010160009054906101000a900473ffffffffffffffffffffffffffffffffffffffff16905082565b6060600180548060200260200160405190810160405280929190818152602001828054801561050d57602002820191906000526020600020905b8160009054906101000a900473ffffffffffffffffffffffffffffffffffffffff1673ffffffffffffffffffffffffffffffffffffffff16815260200190600101908083116104c3575b5050505050905090565b6003818154811061052757600080fd5b906000526020600020906007020160009150905080600001549080600101604051806040016040529081600082015481526020016001820160009054906101000a900473ffffffffffffffffffffffffffffffffffffffff1673ffffffffffffffffffffffffffffffffffffffff1673ffffffffffffffffffffffffffffffffffffffff1681525050908060030154908060040160009054906101000a900473ffffffffffffffffffffffffffffffffffffffff16908060050154908060060160009054906101000a900460ff16905086565b600115156000803373ffffffffffffffffffffffffffffffffffffffff1673ffffffffffffffffffffffffffffffffffffffff16815260200190815260200160002060009054906101000a900460ff1615151461068c576040517f08c379a000000000000000000000000000000000000000000000000000000000815260040161068390611776565b60405180910390fd5b600073ffffffffffffffffffffffffffffffffffffffff168173ffffffffffffffffffffffffffffffffffffffff1614156106fc576040517f08c379a00000000000000000000000000000000000000000000000000000000081526004016106f390611796565b60405180910390fd5b600560405180604001604052808481526020018373ffffffffffffffffffffffffffffffffffffffff1681525090806001815401808255809150506001900390600052602060002090600202016000909190919091506000820151816000015560208201518160010160006101000a81548173ffffffffffffffffffffffffffffffffffffffff021916908373ffffffffffffffffffffffffffffffffffffffff160217905550505081600460008373ffffffffffffffffffffffffffffffffffffffff1673ffffffffffffffffffffffffffffffffffffffff168152602001908152602001600020819055505050565b60606005805480602002602001604051908101604052809291908181526020016000905b828210156108a35783829060005260206000209060020201604051806040016040529081600082015481526020016001820160009054906101000a900473ffffffffffffffffffffffffffffffffffffffff1673ffffffffffffffffffffffffffffffffffffffff1673ffffffffffffffffffffffffffffffffffffffff168152505081526020019060010190610811565b50505050905090565b600115156000803373ffffffffffffffffffffffffffffffffffffffff1673ffffffffffffffffffffffffffffffffffffffff16815260200190815260200160002060009054906101000a900460ff1615151461093e576040517f08c379a000000000000000000000000000000000000000000000000000000000815260040161093590611776565b60405180910390fd5b600015156003828154811061095657610955611aa5565b5b906000526020600020906007020160060160009054906101000a900460ff161515146109b7576040517f08c379a00000000000000000000000000000000000000000000000000000000081526004016109ae90611756565b60405180910390fd5b60001515600660003373ffffffffffffffffffffffffffffffffffffffff1673ffffffffffffffffffffffffffffffffffffffff168152602001908152602001600020600083815260200190815260200160002060009054906101000a900460ff16151514610a5b576040517f08c379a0000000000000000000000000000000000000000000000000000000008152600401610a52906117b6565b60405180910390fd5b6001600660003373ffffffffffffffffffffffffffffffffffffffff1673ffffffffffffffffffffffffffffffffffffffff168152602001908152602001600020600083815260200190815260200160002060006101000a81548160ff02191690831515021790555060038181548110610ad857610ad7611aa5565b5b90600052602060002090600702016005016000815480929190610afa906119fe565b919050555060025460038281548110610b1657610b15611aa5565b5b90600052602060002090600702016005015410610de657600160038281548110610b4357610b42611aa5565b5b906000526020600020906007020160060160006101000a81548160ff021916908315150217905550600060038281548110610b8157610b80611aa5565b5b906000526020600020906007020160040160009054906101000a900473ffffffffffffffffffffffffffffffffffffffff169050600060038381548110610bcb57610bca611aa5565b5b9060005260206000209060070201600301549050600073ffffffffffffffffffffffffffffffffffffffff1660038481548110610c0b57610c0a611aa5565b5b906000526020600020906007020160010160010160009054906101000a900473ffffffffffffffffffffffffffffffffffffffff1673ffffffffffffffffffffffffffffffffffffffff1614610d365760038381548110610c6f57610c6e611aa5565b5b906000526020600020906007020160010160010160009054906101000a900473ffffffffffffffffffffffffffffffffffffffff1673ffffffffffffffffffffffffffffffffffffffff1663a9059cbb83836040518363ffffffff1660e01b8152600401610cde929190611663565b602060405180830381600087803b158015610cf857600080fd5b505af1158015610d0c573d6000803e3d6000fd5b505050506040513d601f19601f82011682018060405250810190610d3091906111cc565b50610de3565b7f455448000000000000000000000000000000000000000000000000000000000060038481548110610d6b57610d6a611aa5565b5b9060005260206000209060070201600101600001541415610dd2578173ffffffffffffffffffffffffffffffffffffffff166108fc829081150290604051600060405180830381858888f19350505050158015610dcc573d6000803e3d6000fd5b50610de2565b6001610de157610de0611a47565b5b5b5b50505b50565b60018181548110610df957600080fd5b906000526020600020016000915054906101000a900473ffffffffffffffffffffffffffffffffffffffff1681565b600115156000803373ffffffffffffffffffffffffffffffffffffffff1673ffffffffffffffffffffffffffffffffffffffff16815260200190815260200160002060009054906101000a900460ff16151514610eba576040517f08c379a0000000000000000000000000000000000000000000000000000000008152600401610eb190611776565b60405180910390fd5b80806000015160046000836020015173ffffffffffffffffffffffffffffffffffffffff1673ffffffffffffffffffffffffffffffffffffffff1681526020019081526020016000205414610f44576040517f08c379a0000000000000000000000000000000000000000000000000000000008152600401610f3b90611736565b60405180910390fd5b60036040518060c0016040528060038054905081526020018481526020018681526020018573ffffffffffffffffffffffffffffffffffffffff16815260200160008152602001600015158152509080600181540180825580915050600190039060005260206000209060070201600090919091909150600082015181600001556020820151816001016000820151816000015560208201518160010160006101000a81548173ffffffffffffffffffffffffffffffffffffffff021916908373ffffffffffffffffffffffffffffffffffffffff16021790555050506040820151816003015560608201518160040160006101000a81548173ffffffffffffffffffffffffffffffffffffffff021916908373ffffffffffffffffffffffffffffffffffffffff1602179055506080820151816005015560a08201518160060160006101000a81548160ff021916908315150217905550505050505050565b60066020528160005260406000206020528060005260406000206000915091509054906101000a900460ff1681565b6000813590506110e281611beb565b92915050565b6000813590506110f781611c02565b92915050565b60008151905061110c81611c19565b92915050565b60008135905061112181611c30565b92915050565b60006040828403121561113d5761113c611b03565b5b6111476040611852565b9050600061115784828501611112565b600083015250602061116b848285016110d3565b60208301525092915050565b60008135905061118681611c47565b92915050565b600080604083850312156111a3576111a2611b08565b5b60006111b1858286016110d3565b92505060206111c285828601611177565b9150509250929050565b6000602082840312156111e2576111e1611b08565b5b60006111f0848285016110fd565b91505092915050565b600080604083850312156112105761120f611b08565b5b600061121e85828601611112565b925050602061122f858286016110d3565b9150509250929050565b60006020828403121561124f5761124e611b08565b5b600061125d84828501611177565b91505092915050565b60008060006080848603121561127f5761127e611b08565b5b600061128d86828701611177565b935050602061129e868287016110e8565b92505060406112af86828701611127565b9150509250925092565b60006112c5838361132e565b60208301905092915050565b60006112dd8383611551565b60408301905092915050565b60006112f583836115af565b60e08301905092915050565b61130a81611997565b82525050565b61131981611945565b82525050565b61132881611945565b82525050565b61133781611933565b82525050565b61134681611933565b82525050565b6000611357826118a7565b61136181856118ef565b935061136c83611877565b8060005b8381101561139d57815161138488826112b9565b975061138f836118c8565b925050600181019050611370565b5085935050505092915050565b60006113b5826118b2565b6113bf8185611900565b93506113ca83611887565b8060005b838110156113fb5781516113e288826112d1565b97506113ed836118d5565b9250506001810190506113ce565b5085935050505092915050565b6000611413826118bd565b61141d8185611911565b935061142883611897565b8060005b8381101561145957815161144088826112e9565b975061144b836118e2565b92505060018101905061142c565b5085935050505092915050565b61146f81611957565b82525050565b61147e81611957565b82525050565b61148d81611963565b82525050565b61149c81611963565b82525050565b60006114af601383611922565b91506114ba82611b1e565b602082019050919050565b60006114d2601e83611922565b91506114dd82611b47565b602082019050919050565b60006114f5601583611922565b915061150082611b70565b602082019050919050565b6000611518601883611922565b915061152382611b99565b602082019050919050565b600061153b601d83611922565b915061154682611bc2565b602082019050919050565b6040820160008201516115676000850182611484565b50602082015161157a602085018261132e565b50505050565b6040820160008201516115966000850182611484565b5060208201516115a9602085018261132e565b50505050565b60e0820160008201516115c5600085018261162a565b5060208201516115d86020850182611551565b5060408201516115eb606085018261162a565b5060608201516115fe6080850182611310565b50608082015161161160a085018261162a565b5060a082015161162460c0850182611466565b50505050565b6116338161198d565b82525050565b6116428161198d565b82525050565b600060208201905061165d600083018461133d565b92915050565b60006040820190506116786000830185611301565b6116856020830184611639565b9392505050565b600060208201905081810360008301526116a6818461134c565b905092915050565b600060208201905081810360008301526116c881846113aa565b905092915050565b600060208201905081810360008301526116ea8184611408565b905092915050565b60006020820190506117076000830184611475565b92915050565b60006040820190506117226000830185611493565b61172f602083018461133d565b9392505050565b6000602082019050818103600083015261174f816114a2565b9050919050565b6000602082019050818103600083015261176f816114c5565b9050919050565b6000602082019050818103600083015261178f816114e8565b9050919050565b600060208201905081810360008301526117af8161150b565b9050919050565b600060208201905081810360008301526117cf8161152e565b9050919050565b60006020820190506117eb6000830184611639565b92915050565b600060e0820190506118066000830189611639565b6118136020830188611580565b6118206060830187611639565b61182d608083018661131f565b61183a60a0830185611639565b61184760c0830184611475565b979650505050505050565b600061185c61186d565b905061186882826119cd565b919050565b6000604051905090565b6000819050602082019050919050565b6000819050602082019050919050565b6000819050602082019050919050565b600081519050919050565b600081519050919050565b600081519050919050565b6000602082019050919050565b6000602082019050919050565b6000602082019050919050565b600082825260208201905092915050565b600082825260208201905092915050565b600082825260208201905092915050565b600082825260208201905092915050565b600061193e8261196d565b9050919050565b60006119508261196d565b9050919050565b60008115159050919050565b6000819050919050565b600073ffffffffffffffffffffffffffffffffffffffff82169050919050565b6000819050919050565b60006119a2826119a9565b9050919050565b60006119b4826119bb565b9050919050565b60006119c68261196d565b9050919050565b6119d682611b0d565b810181811067ffffffffffffffff821117156119f5576119f4611ad4565b5b80604052505050565b6000611a098261198d565b91507fffffffffffffffffffffffffffffffffffffffffffffffffffffffffffffffff821415611a3c57611a3b611a76565b5b600182019050919050565b7f4e487b7100000000000000000000000000000000000000000000000000000000600052600160045260246000fd5b7f4e487b7100000000000000000000000000000000000000000000000000000000600052601160045260246000fd5b7f4e487b7100000000000000000000000000000000000000000000000000000000600052603260045260246000fd5b7f4e487b7100000000000000000000000000000000000000000000000000000000600052604160045260246000fd5b600080fd5b600080fd5b6000601f19601f8301169050919050565b7f746f6b656e206e6f7420737570706f7274656400000000000000000000000000600082015250565b7f7472616e736665722068617320616c7265616479206265656e2073656e740000600082015250565b7f6f6e6c7920617070726f76657220616c6c6f7765640000000000000000000000600082015250565b7f7a65726f2061647265737320697320666f7262696464656e0000000000000000600082015250565b7f63616e6e6f7420617070726f7665207472616e73666572207477696365000000600082015250565b611bf481611933565b8114611bff57600080fd5b50565b611c0b81611945565b8114611c1657600080fd5b50565b611c2281611957565b8114611c2d57600080fd5b50565b611c3981611963565b8114611c4457600080fd5b50565b611c508161198d565b8114611c5b57600080fd5b5056fea26469706673582212202a20440146220b2f4f1e530cda59dfbcdf07e9f59f55c03641886cc9b5d3d4f064736f6c63430008060033",
  "immutableReferences": {},
  "source": "// SPDX-License-Identifier: MIT\npragma solidity ^0.8.0;\n\nimport '@openzeppelin/contracts/token/ERC20/IERC20.sol';\n\n\ncontract Wallet {\n  mapping(address => bool) isApprover;\n  address[] public approvers;\n\n  uint public quorum;\n  bytes32 constant NATIVE = 'ETH';\n\n  struct Token {\n    bytes32 tokenSymbol;\n    address tokenAddress;\n  }\n\n  struct Transfer {\n    uint id;\n    Token token;\n    uint amount;\n    address payable to;\n    uint approvals;\n    bool sent;\n  }\n\n  Transfer[] public transfers;\n\n  mapping(address => bytes32) tokenAddressToSymbol;\n  Token[] public tokens;\n\n  mapping(address => mapping(uint => bool)) public approvals;\n  \n  constructor(address[] memory _approvers, uint _quorum) {\n    quorum = _quorum;\n    approvers = _approvers;\n\n    for (uint i = 0; i < _approvers.length; i++) {\n      isApprover[_approvers[i]] = true;\n    }\n\n    tokens.push(Token(NATIVE, address(0)));\n    tokenAddressToSymbol[address(0)] = NATIVE;\n  }\n\n  function getTokens() external view returns(Token[] memory) {\n    return tokens;\n  }\n\n  function getApprovers() external view returns(address[] memory) {\n    return approvers;\n  }\n  \n  function getTransfers() external view returns(Transfer[] memory) {\n    return transfers;\n  }\n\n  function addToken(bytes32 tokenSymbol, address tokenAddress) external onlyApprover() {\n    require(tokenAddress != address(0), 'zero adress is forbidden');\n    tokens.push(Token(tokenSymbol, tokenAddress));\n    tokenAddressToSymbol[tokenAddress] = tokenSymbol;\n  }\n\n  function createTransfer(uint amount,  address payable to, Token memory token)\n    external onlyApprover() isTokenSupported(token) {\n    transfers.push(Transfer(\n      transfers.length,\n      token,\n      amount,\n      to,\n      0,\n      false\n    ));\n  }\n  \n  function approveTransfer(uint id) external onlyApprover() {\n    require(transfers[id].sent == false, 'transfer has already been sent');\n    require(approvals[msg.sender][id] == false, 'cannot approve transfer twice');\n    \n    approvals[msg.sender][id] = true;\n    transfers[id].approvals++;\n    \n    // When the number of approvals reaches the quorum,\n    // attempt to make the transfer\n    if(transfers[id].approvals >= quorum) {\n      transfers[id].sent = true;\n      address payable to = transfers[id].to;\n      uint amount = transfers[id].amount;\n\n      // ERC20\n      if (transfers[id].token.tokenAddress != address(0)) {\n        IERC20(transfers[id].token.tokenAddress).transfer(\n          to,\n          amount\n        );\n      } else if (transfers[id].token.tokenSymbol == NATIVE) {\n        to.transfer(amount);\n      } else {\n        // Should never happen, as the token is unidentified\n        assert(true);\n      }\n    }\n  }\n  \n  receive() external payable {}\n  \n  modifier onlyApprover() {\n    require(isApprover[msg.sender] == true, 'only approver allowed');\n    _;\n  }\n\n  modifier isTokenSupported(Token memory token) {\n    require(tokenAddressToSymbol[token.tokenAddress] == token.tokenSymbol, 'token not supported');\n    _;\n  }\n}\n",
  "sourcePath": "/Users/entergmode/crypto/wallet/contracts/Wallet.sol",
  "compiler": {
    "name": "solc",
    "version": "0.8.6+commit.11564f7e.Emscripten.clang"
  },
  "schemaVersion": "3.4.0",
  "updatedAt": "2021-06-25T08:41:35.969Z",
  "networkType": "ethereum",
  "devdoc": {
    "kind": "dev",
    "methods": {},
    "version": 1
  },
  "userdoc": {
    "kind": "user",
    "methods": {},
    "version": 1
  }
}