{
  "contractName": "Wallet",
  "abi": [
    {
      "inputs": [
        {
          "internalType": "address[]",
          "name": "_approvers",
          "type": "address[]"
        },
        {
          "internalType": "uint256",
          "name": "_quorum",
          "type": "uint256"
        }
      ],
      "stateMutability": "nonpayable",
      "type": "constructor"
    },
    {
      "inputs": [],
      "name": "admin",
      "outputs": [
        {
          "internalType": "address",
          "name": "",
          "type": "address"
        }
      ],
      "stateMutability": "view",
      "type": "function"
    },
    {
      "inputs": [
        {
          "internalType": "address",
          "name": "",
          "type": "address"
        },
        {
          "internalType": "uint256",
          "name": "",
          "type": "uint256"
        }
      ],
      "name": "approvals",
      "outputs": [
        {
          "internalType": "bool",
          "name": "",
          "type": "bool"
        }
      ],
      "stateMutability": "view",
      "type": "function"
    },
    {
      "inputs": [
        {
          "internalType": "uint256",
          "name": "",
          "type": "uint256"
        }
      ],
      "name": "approvers",
      "outputs": [
        {
          "internalType": "address",
          "name": "",
          "type": "address"
        }
      ],
      "stateMutability": "view",
      "type": "function"
    },
    {
      "inputs": [],
      "name": "quorum",
      "outputs": [
        {
          "internalType": "uint256",
          "name": "",
          "type": "uint256"
        }
      ],
      "stateMutability": "view",
      "type": "function"
    },
    {
      "inputs": [
        {
          "internalType": "uint256",
          "name": "",
          "type": "uint256"
        }
      ],
      "name": "tokenList",
      "outputs": [
        {
          "internalType": "string",
          "name": "",
          "type": "string"
        }
      ],
      "stateMutability": "view",
      "type": "function"
    },
    {
      "inputs": [
        {
          "internalType": "string",
          "name": "",
          "type": "string"
        }
      ],
      "name": "tokenToAddress",
      "outputs": [
        {
          "internalType": "string",
          "name": "tokenSymbol",
          "type": "string"
        },
        {
          "internalType": "address",
          "name": "tokenAddress",
          "type": "address"
        },
        {
          "internalType": "enum Wallet.Standard",
          "name": "standard",
          "type": "uint8"
        }
      ],
      "stateMutability": "view",
      "type": "function"
    },
    {
      "inputs": [
        {
          "internalType": "uint256",
          "name": "",
          "type": "uint256"
        }
      ],
      "name": "transfers",
      "outputs": [
        {
          "internalType": "uint256",
          "name": "id",
          "type": "uint256"
        },
        {
          "internalType": "string",
          "name": "tokenSymbol",
          "type": "string"
        },
        {
          "internalType": "enum Wallet.Standard",
          "name": "standard",
          "type": "uint8"
        },
        {
          "internalType": "uint256",
          "name": "amount",
          "type": "uint256"
        },
        {
          "internalType": "address payable",
          "name": "to",
          "type": "address"
        },
        {
          "internalType": "uint256",
          "name": "approvals",
          "type": "uint256"
        },
        {
          "internalType": "bool",
          "name": "sent",
          "type": "bool"
        }
      ],
      "stateMutability": "view",
      "type": "function"
    },
    {
      "stateMutability": "payable",
      "type": "receive"
    },
    {
      "inputs": [
        {
          "internalType": "string",
          "name": "tokenSymbol",
          "type": "string"
        },
        {
          "internalType": "address",
          "name": "tokenAddress",
          "type": "address"
        }
      ],
      "name": "addToken",
      "outputs": [],
      "stateMutability": "nonpayable",
      "type": "function"
    },
    {
      "inputs": [],
      "name": "getTokenList",
      "outputs": [
        {
          "components": [
            {
              "internalType": "string",
              "name": "tokenSymbol",
              "type": "string"
            },
            {
              "internalType": "address",
              "name": "tokenAddress",
              "type": "address"
            },
            {
              "internalType": "enum Wallet.Standard",
              "name": "standard",
              "type": "uint8"
            }
          ],
          "internalType": "struct Wallet.Token[]",
          "name": "",
          "type": "tuple[]"
        }
      ],
      "stateMutability": "view",
      "type": "function"
    },
    {
      "inputs": [],
      "name": "getApprovers",
      "outputs": [
        {
          "internalType": "address[]",
          "name": "",
          "type": "address[]"
        }
      ],
      "stateMutability": "view",
      "type": "function"
    },
    {
      "inputs": [],
      "name": "getTransfers",
      "outputs": [
        {
          "components": [
            {
              "internalType": "uint256",
              "name": "id",
              "type": "uint256"
            },
            {
              "internalType": "string",
              "name": "tokenSymbol",
              "type": "string"
            },
            {
              "internalType": "enum Wallet.Standard",
              "name": "standard",
              "type": "uint8"
            },
            {
              "internalType": "uint256",
              "name": "amount",
              "type": "uint256"
            },
            {
              "internalType": "address payable",
              "name": "to",
              "type": "address"
            },
            {
              "internalType": "uint256",
              "name": "approvals",
              "type": "uint256"
            },
            {
              "internalType": "bool",
              "name": "sent",
              "type": "bool"
            }
          ],
          "internalType": "struct Wallet.Transfer[]",
          "name": "",
          "type": "tuple[]"
        }
      ],
      "stateMutability": "view",
      "type": "function"
    },
    {
      "inputs": [
        {
          "internalType": "enum Wallet.Standard",
          "name": "standard",
          "type": "uint8"
        },
        {
          "internalType": "string",
          "name": "tokenSymbol",
          "type": "string"
        },
        {
          "internalType": "uint256",
          "name": "amount",
          "type": "uint256"
        },
        {
          "internalType": "address payable",
          "name": "to",
          "type": "address"
        }
      ],
      "name": "createTransfer",
      "outputs": [],
      "stateMutability": "nonpayable",
      "type": "function"
    },
    {
      "inputs": [
        {
          "internalType": "uint256",
          "name": "id",
          "type": "uint256"
        }
      ],
      "name": "approveTransfer",
      "outputs": [],
      "stateMutability": "nonpayable",
      "type": "function"
    }
  ],
  "bytecode": "0x60806040523480156200001157600080fd5b5060405162002951380380620029518339818101604052810190620000379190620002c2565b8060038190555081600190805190602001906200005692919062000138565b5060005b8251811015620000ee5760016000808584815181106200007f576200007e62000471565b5b602002602001015173ffffffffffffffffffffffffffffffffffffffff1673ffffffffffffffffffffffffffffffffffffffff16815260200190815260200160002060006101000a81548160ff0219169083151502179055508080620000e590620003f4565b9150506200005a565b5033600260006101000a81548173ffffffffffffffffffffffffffffffffffffffff021916908373ffffffffffffffffffffffffffffffffffffffff160217905550505062000528565b828054828255906000526020600020908101928215620001b4579160200282015b82811115620001b35782518260006101000a81548173ffffffffffffffffffffffffffffffffffffffff021916908373ffffffffffffffffffffffffffffffffffffffff1602179055509160200191906001019062000159565b5b509050620001c39190620001c7565b5090565b5b80821115620001e2576000816000905550600101620001c8565b5090565b6000620001fd620001f78462000351565b62000328565b90508083825260208201905082856020860282011115620002235762000222620004d4565b5b60005b858110156200025757816200023c888262000261565b84526020840193506020830192505060018101905062000226565b5050509392505050565b6000815190506200027281620004f4565b92915050565b600082601f83011262000290576200028f620004cf565b5b8151620002a2848260208601620001e6565b91505092915050565b600081519050620002bc816200050e565b92915050565b60008060408385031215620002dc57620002db620004de565b5b600083015167ffffffffffffffff811115620002fd57620002fc620004d9565b5b6200030b8582860162000278565b92505060206200031e85828601620002ab565b9150509250929050565b60006200033462000347565b9050620003428282620003be565b919050565b6000604051905090565b600067ffffffffffffffff8211156200036f576200036e620004a0565b5b602082029050602081019050919050565b60006200038d8262000394565b9050919050565b600073ffffffffffffffffffffffffffffffffffffffff82169050919050565b6000819050919050565b620003c982620004e3565b810181811067ffffffffffffffff82111715620003eb57620003ea620004a0565b5b80604052505050565b60006200040182620003b4565b91507fffffffffffffffffffffffffffffffffffffffffffffffffffffffffffffffff82141562000437576200043662000442565b5b600182019050919050565b7f4e487b7100000000000000000000000000000000000000000000000000000000600052601160045260246000fd5b7f4e487b7100000000000000000000000000000000000000000000000000000000600052603260045260246000fd5b7f4e487b7100000000000000000000000000000000000000000000000000000000600052604160045260246000fd5b600080fd5b600080fd5b600080fd5b600080fd5b6000601f19601f8301169050919050565b620004ff8162000380565b81146200050b57600080fd5b50565b6200051981620003b4565b81146200052557600080fd5b50565b61241980620005386000396000f3fe6080604052600436106100c65760003560e01c80639377d7111161007f578063cacca4a011610059578063cacca4a01461028f578063d3650fb8146102b8578063f851a440146102f5578063ffabc67314610320576100cd565b80639377d711146101e65780639ead722214610229578063b0b22c2c14610266576100cd565b80630574135a146100d25780631703a018146100fb578063273cbaa0146101265780632f65142c146101515780633233d1591461017c5780636cb3e8ef146101bb576100cd565b366100cd57005b600080fd5b3480156100de57600080fd5b506100f960048036038101906100f49190611630565b61035d565b005b34801561010757600080fd5b50610110610558565b60405161011d9190611e2d565b60405180910390f35b34801561013257600080fd5b5061013b61055e565b6040516101489190611cee565b60405180910390f35b34801561015d57600080fd5b5061016661076f565b6040516101739190611d10565b60405180910390f35b34801561018857600080fd5b506101a3600480360381019061019e91906116b3565b61092a565b6040516101b293929190611d6f565b60405180910390f35b3480156101c757600080fd5b506101d0610a1f565b6040516101dd9190611ccc565b60405180910390f35b3480156101f257600080fd5b5061020d60048036038101906102089190611758565b610aad565b6040516102209796959493929190611e48565b60405180910390f35b34801561023557600080fd5b50610250600480360381019061024b9190611758565b610bc1565b60405161025d9190611d4d565b60405180910390f35b34801561027257600080fd5b5061028d600480360381019061028891906116fc565b610c6d565b005b34801561029b57600080fd5b506102b660048036038101906102b19190611758565b610e36565b005b3480156102c457600080fd5b506102df60048036038101906102da9190611758565b61136a565b6040516102ec9190611c7a565b60405180910390f35b34801561030157600080fd5b5061030a6113a9565b6040516103179190611c7a565b60405180910390f35b34801561032c57600080fd5b50610347600480360381019061034291906115c3565b6113cf565b6040516103549190611d32565b60405180910390f35b600115156000803373ffffffffffffffffffffffffffffffffffffffff1673ffffffffffffffffffffffffffffffffffffffff16815260200190815260200160002060009054906101000a900460ff161515146103ef576040517f08c379a00000000000000000000000000000000000000000000000000000000081526004016103e690611ded565b60405180910390fd5b60046040518060e0016040528060048054905081526020018581526020018660018111156104205761041f6121de565b5b81526020018481526020018373ffffffffffffffffffffffffffffffffffffffff168152602001600081526020016000151581525090806001815401808255809150506001900390600052602060002090600702016000909190919091506000820151816000015560208201518160010190805190602001906104a49291906113fe565b5060408201518160020160006101000a81548160ff021916908360018111156104d0576104cf6121de565b5b02179055506060820151816003015560808201518160040160006101000a81548173ffffffffffffffffffffffffffffffffffffffff021916908373ffffffffffffffffffffffffffffffffffffffff16021790555060a0820151816005015560c08201518160060160006101000a81548160ff021916908315150217905550505050505050565b60035481565b6060600060068054905067ffffffffffffffff8111156105815761058061226b565b5b6040519080825280602002602001820160405280156105ba57816020015b6105a7611484565b81526020019060019003908161059f5790505b50905060005b600680549050811015610767576005600682815481106105e3576105e261223c565b5b906000526020600020016040516105fa9190611c63565b908152602001604051809103902060405180606001604052908160008201805461062390612103565b80601f016020809104026020016040519081016040528092919081815260200182805461064f90612103565b801561069c5780601f106106715761010080835404028352916020019161069c565b820191906000526020600020905b81548152906001019060200180831161067f57829003601f168201915b505050505081526020016001820160009054906101000a900473ffffffffffffffffffffffffffffffffffffffff1673ffffffffffffffffffffffffffffffffffffffff1673ffffffffffffffffffffffffffffffffffffffff1681526020016001820160149054906101000a900460ff1660018111156107205761071f6121de565b5b6001811115610732576107316121de565b5b815250508282815181106107495761074861223c565b5b6020026020010181905250808061075f90612166565b9150506105c0565b508091505090565b60606004805480602002602001604051908101604052809291908181526020016000905b8282101561092157838290600052602060002090600702016040518060e0016040529081600082015481526020016001820180546107d090612103565b80601f01602080910402602001604051908101604052809291908181526020018280546107fc90612103565b80156108495780601f1061081e57610100808354040283529160200191610849565b820191906000526020600020905b81548152906001019060200180831161082c57829003601f168201915b505050505081526020016002820160009054906101000a900460ff166001811115610877576108766121de565b5b6001811115610889576108886121de565b5b8152602001600382015481526020016004820160009054906101000a900473ffffffffffffffffffffffffffffffffffffffff1673ffffffffffffffffffffffffffffffffffffffff1673ffffffffffffffffffffffffffffffffffffffff168152602001600582015481526020016006820160009054906101000a900460ff16151515158152505081526020019060010190610793565b50505050905090565b60058180516020810182018051848252602083016020850120818352809550505050505060009150905080600001805461096390612103565b80601f016020809104026020016040519081016040528092919081815260200182805461098f90612103565b80156109dc5780601f106109b1576101008083540402835291602001916109dc565b820191906000526020600020905b8154815290600101906020018083116109bf57829003601f168201915b5050505050908060010160009054906101000a900473ffffffffffffffffffffffffffffffffffffffff16908060010160149054906101000a900460ff16905083565b60606001805480602002602001604051908101604052809291908181526020018280548015610aa357602002820191906000526020600020905b8160009054906101000a900473ffffffffffffffffffffffffffffffffffffffff1673ffffffffffffffffffffffffffffffffffffffff1681526020019060010190808311610a59575b5050505050905090565b60048181548110610abd57600080fd5b9060005260206000209060070201600091509050806000015490806001018054610ae690612103565b80601f0160208091040260200160405190810160405280929190818152602001828054610b1290612103565b8015610b5f5780601f10610b3457610100808354040283529160200191610b5f565b820191906000526020600020905b815481529060010190602001808311610b4257829003601f168201915b5050505050908060020160009054906101000a900460ff16908060030154908060040160009054906101000a900473ffffffffffffffffffffffffffffffffffffffff16908060050154908060060160009054906101000a900460ff16905087565b60068181548110610bd157600080fd5b906000526020600020016000915090508054610bec90612103565b80601f0160208091040260200160405190810160405280929190818152602001828054610c1890612103565b8015610c655780601f10610c3a57610100808354040283529160200191610c65565b820191906000526020600020905b815481529060010190602001808311610c4857829003601f168201915b505050505081565b600260009054906101000a900473ffffffffffffffffffffffffffffffffffffffff1673ffffffffffffffffffffffffffffffffffffffff163373ffffffffffffffffffffffffffffffffffffffff1614610cfd576040517f08c379a0000000000000000000000000000000000000000000000000000000008152600401610cf490611dcd565b60405180910390fd5b60405180606001604052808381526020018273ffffffffffffffffffffffffffffffffffffffff16815260200160006001811115610d3e57610d3d6121de565b5b815250600583604051610d519190611c4c565b90815260200160405180910390206000820151816000019080519060200190610d7b9291906113fe565b5060208201518160010160006101000a81548173ffffffffffffffffffffffffffffffffffffffff021916908373ffffffffffffffffffffffffffffffffffffffff16021790555060408201518160010160146101000a81548160ff02191690836001811115610dee57610ded6121de565b5b0217905550905050600682908060018154018082558091505060019003906000526020600020016000909190919091509080519060200190610e319291906113fe565b505050565b600115156000803373ffffffffffffffffffffffffffffffffffffffff1673ffffffffffffffffffffffffffffffffffffffff16815260200190815260200160002060009054906101000a900460ff16151514610ec8576040517f08c379a0000000000000000000000000000000000000000000000000000000008152600401610ebf90611ded565b60405180910390fd5b6000151560048281548110610ee057610edf61223c565b5b906000526020600020906007020160060160009054906101000a900460ff16151514610f41576040517f08c379a0000000000000000000000000000000000000000000000000000000008152600401610f3890611dad565b60405180910390fd5b60001515600760003373ffffffffffffffffffffffffffffffffffffffff1673ffffffffffffffffffffffffffffffffffffffff168152602001908152602001600020600083815260200190815260200160002060009054906101000a900460ff16151514610fe5576040517f08c379a0000000000000000000000000000000000000000000000000000000008152600401610fdc90611e0d565b60405180910390fd5b6001600760003373ffffffffffffffffffffffffffffffffffffffff1673ffffffffffffffffffffffffffffffffffffffff168152602001908152602001600020600083815260200190815260200160002060006101000a81548160ff021916908315150217905550600481815481106110625761106161223c565b5b9060005260206000209060070201600501600081548092919061108490612166565b9190505550600354600482815481106110a05761109f61223c565b5b90600052602060002090600702016005015410611367576001600482815481106110cd576110cc61223c565b5b906000526020600020906007020160060160006101000a81548160ff02191690831515021790555060006004828154811061110b5761110a61223c565b5b906000526020600020906007020160040160009054906101000a900473ffffffffffffffffffffffffffffffffffffffff1690506000600483815481106111555761115461223c565b5b90600052602060002090600702016003015490506000600181111561117d5761117c6121de565b5b600484815481106111915761119061223c565b5b906000526020600020906007020160020160009054906101000a900460ff1660018111156111c2576111c16121de565b5b14156112be576005600484815481106111de576111dd61223c565b5b90600052602060002090600702016001016040516111fc9190611c63565b908152602001604051809103902060010160009054906101000a900473ffffffffffffffffffffffffffffffffffffffff1673ffffffffffffffffffffffffffffffffffffffff166323b872dd3084846040518463ffffffff1660e01b815260040161126a93929190611c95565b602060405180830381600087803b15801561128457600080fd5b505af1158015611298573d6000803e3d6000fd5b505050506040513d601f19601f820116820180604052508101906112bc9190611603565b505b6001808111156112d1576112d06121de565b5b600484815481106112e5576112e461223c565b5b906000526020600020906007020160020160009054906101000a900460ff166001811115611316576113156121de565b5b1415611364578173ffffffffffffffffffffffffffffffffffffffff166108fc829081150290604051600060405180830381858888f19350505050158015611362573d6000803e3d6000fd5b505b50505b50565b6001818154811061137a57600080fd5b906000526020600020016000915054906101000a900473ffffffffffffffffffffffffffffffffffffffff1681565b600260009054906101000a900473ffffffffffffffffffffffffffffffffffffffff1681565b60076020528160005260406000206020528060005260406000206000915091509054906101000a900460ff1681565b82805461140a90612103565b90600052602060002090601f01602090048101928261142c5760008555611473565b82601f1061144557805160ff1916838001178555611473565b82800160010185558215611473579182015b82811115611472578251825591602001919060010190611457565b5b50905061148091906114cd565b5090565b604051806060016040528060608152602001600073ffffffffffffffffffffffffffffffffffffffff168152602001600060018111156114c7576114c66121de565b5b81525090565b5b808211156114e65760008160009055506001016114ce565b5090565b60006114fd6114f884611ee3565b611ebe565b9050828152602081018484840111156115195761151861229f565b5b6115248482856120c1565b509392505050565b60008135905061153b81612377565b92915050565b6000813590506115508161238e565b92915050565b600081519050611565816123a5565b92915050565b60008135905061157a816123bc565b92915050565b600082601f8301126115955761159461229a565b5b81356115a58482602086016114ea565b91505092915050565b6000813590506115bd816123cc565b92915050565b600080604083850312156115da576115d96122a9565b5b60006115e88582860161152c565b92505060206115f9858286016115ae565b9150509250929050565b600060208284031215611619576116186122a9565b5b600061162784828501611556565b91505092915050565b6000806000806080858703121561164a576116496122a9565b5b60006116588782880161156b565b945050602085013567ffffffffffffffff811115611679576116786122a4565b5b61168587828801611580565b9350506040611696878288016115ae565b92505060606116a787828801611541565b91505092959194509250565b6000602082840312156116c9576116c86122a9565b5b600082013567ffffffffffffffff8111156116e7576116e66122a4565b5b6116f384828501611580565b91505092915050565b60008060408385031215611713576117126122a9565b5b600083013567ffffffffffffffff811115611731576117306122a4565b5b61173d85828601611580565b925050602061174e8582860161152c565b9150509250929050565b60006020828403121561176e5761176d6122a9565b5b600061177c848285016115ae565b91505092915050565b600061179183836117f2565b60208301905092915050565b60006117a98383611b42565b905092915050565b60006117bd8383611b92565b905092915050565b6117ce81612079565b82525050565b6117dd8161201e565b82525050565b6117ec8161201e565b82525050565b6117fb8161200c565b82525050565b61180a8161200c565b82525050565b600061181b82611f59565b6118258185611fac565b935061183083611f14565b8060005b838110156118615781516118488882611785565b975061185383611f85565b925050600181019050611834565b5085935050505092915050565b600061187982611f64565b6118838185611fbd565b93508360208202850161189585611f24565b8060005b858110156118d157848403895281516118b2858261179d565b94506118bd83611f92565b925060208a01995050600181019050611899565b50829750879550505050505092915050565b60006118ee82611f6f565b6118f88185611fce565b93508360208202850161190a85611f34565b8060005b85811015611946578484038952815161192785826117b1565b945061193283611f9f565b925060208a0199505060018101905061190e565b50829750879550505050505092915050565b61196181612030565b82525050565b61197081612030565b82525050565b61197f8161208b565b82525050565b61198e8161208b565b82525050565b600061199f82611f7a565b6119a98185611fdf565b93506119b98185602086016120d0565b6119c2816122ae565b840191505092915050565b60006119d882611f7a565b6119e28185611ff0565b93506119f28185602086016120d0565b6119fb816122ae565b840191505092915050565b6000611a1182611f7a565b611a1b8185612001565b9350611a2b8185602086016120d0565b80840191505092915050565b60008154611a4481612103565b611a4e8186612001565b94506001821660008114611a695760018114611a7a57611aad565b60ff19831686528186019350611aad565b611a8385611f44565b60005b83811015611aa557815481890152600182019150602081019050611a86565b838801955050505b50505092915050565b6000611ac3601e83611ff0565b9150611ace826122bf565b602082019050919050565b6000611ae6600a83611ff0565b9150611af1826122e8565b602082019050919050565b6000611b09601583611ff0565b9150611b1482612311565b602082019050919050565b6000611b2c601d83611ff0565b9150611b378261233a565b602082019050919050565b60006060830160008301518482036000860152611b5f8282611994565b9150506020830151611b7460208601826117f2565b506040830151611b876040860182611976565b508091505092915050565b600060e083016000830151611baa6000860182611c2e565b5060208301518482036020860152611bc28282611994565b9150506040830151611bd76040860182611976565b506060830151611bea6060860182611c2e565b506080830151611bfd60808601826117d4565b5060a0830151611c1060a0860182611c2e565b5060c0830151611c2360c0860182611958565b508091505092915050565b611c378161206f565b82525050565b611c468161206f565b82525050565b6000611c588284611a06565b915081905092915050565b6000611c6f8284611a37565b915081905092915050565b6000602082019050611c8f6000830184611801565b92915050565b6000606082019050611caa6000830186611801565b611cb760208301856117c5565b611cc46040830184611c3d565b949350505050565b60006020820190508181036000830152611ce68184611810565b905092915050565b60006020820190508181036000830152611d08818461186e565b905092915050565b60006020820190508181036000830152611d2a81846118e3565b905092915050565b6000602082019050611d476000830184611967565b92915050565b60006020820190508181036000830152611d6781846119cd565b905092915050565b60006060820190508181036000830152611d8981866119cd565b9050611d986020830185611801565b611da56040830184611985565b949350505050565b60006020820190508181036000830152611dc681611ab6565b9050919050565b60006020820190508181036000830152611de681611ad9565b9050919050565b60006020820190508181036000830152611e0681611afc565b9050919050565b60006020820190508181036000830152611e2681611b1f565b9050919050565b6000602082019050611e426000830184611c3d565b92915050565b600060e082019050611e5d600083018a611c3d565b8181036020830152611e6f81896119cd565b9050611e7e6040830188611985565b611e8b6060830187611c3d565b611e9860808301866117e3565b611ea560a0830185611c3d565b611eb260c0830184611967565b98975050505050505050565b6000611ec8611ed9565b9050611ed48282612135565b919050565b6000604051905090565b600067ffffffffffffffff821115611efe57611efd61226b565b5b611f07826122ae565b9050602081019050919050565b6000819050602082019050919050565b6000819050602082019050919050565b6000819050602082019050919050565b60008190508160005260206000209050919050565b600081519050919050565b600081519050919050565b600081519050919050565b600081519050919050565b6000602082019050919050565b6000602082019050919050565b6000602082019050919050565b600082825260208201905092915050565b600082825260208201905092915050565b600082825260208201905092915050565b600082825260208201905092915050565b600082825260208201905092915050565b600081905092915050565b60006120178261204f565b9050919050565b60006120298261204f565b9050919050565b60008115159050919050565b600081905061204a82612363565b919050565b600073ffffffffffffffffffffffffffffffffffffffff82169050919050565b6000819050919050565b60006120848261209d565b9050919050565b60006120968261203c565b9050919050565b60006120a8826120af565b9050919050565b60006120ba8261204f565b9050919050565b82818337600083830152505050565b60005b838110156120ee5780820151818401526020810190506120d3565b838111156120fd576000848401525b50505050565b6000600282049050600182168061211b57607f821691505b6020821081141561212f5761212e61220d565b5b50919050565b61213e826122ae565b810181811067ffffffffffffffff8211171561215d5761215c61226b565b5b80604052505050565b60006121718261206f565b91507fffffffffffffffffffffffffffffffffffffffffffffffffffffffffffffffff8214156121a4576121a36121af565b5b600182019050919050565b7f4e487b7100000000000000000000000000000000000000000000000000000000600052601160045260246000fd5b7f4e487b7100000000000000000000000000000000000000000000000000000000600052602160045260246000fd5b7f4e487b7100000000000000000000000000000000000000000000000000000000600052602260045260246000fd5b7f4e487b7100000000000000000000000000000000000000000000000000000000600052603260045260246000fd5b7f4e487b7100000000000000000000000000000000000000000000000000000000600052604160045260246000fd5b600080fd5b600080fd5b600080fd5b600080fd5b6000601f19601f8301169050919050565b7f7472616e736665722068617320616c7265616479206265656e2073656e740000600082015250565b7f6f6e6c792061646d696e00000000000000000000000000000000000000000000600082015250565b7f6f6e6c7920617070726f76657220616c6c6f7765640000000000000000000000600082015250565b7f63616e6e6f7420617070726f7665207472616e73666572207477696365000000600082015250565b60028110612374576123736121de565b5b50565b6123808161200c565b811461238b57600080fd5b50565b6123978161201e565b81146123a257600080fd5b50565b6123ae81612030565b81146123b957600080fd5b50565b600281106123c957600080fd5b50565b6123d58161206f565b81146123e057600080fd5b5056fea2646970667358221220ff9edaedb00103940f128cbb2cf2337f0fcdb58ced6d98b823c3f4dae859e79564736f6c63430008060033",
  "immutableReferences": {},
  "source": "// SPDX-License-Identifier: MIT\npragma solidity ^0.8.0;\n\nimport '@openzeppelin/contracts/token/ERC20/IERC20.sol';\n\n// Payable to cast to address payable: payable(xksds)\n// payable(msg.sender).transfer(amount in wei);\n// payable(address(contractName))\n\ncontract Wallet {\n  // Faciliate the lookup efficiency by using mapping\n  mapping(address => bool) isApprover;\n  address[] public approvers;\n  address public admin;\n  uint public quorum;\n  \n  enum Standard {\n    ERC20,\n    NATIVE\n  }\n\n  struct Transfer {\n    uint id;\n    string tokenSymbol;\n    Standard standard;\n    uint amount;\n    address payable to;\n    uint approvals;\n    bool sent;\n  }\n\n  Transfer[] public transfers;\n  \n  struct Token {\n    string tokenSymbol;\n    address tokenAddress;\n    Standard standard; \n  }\n\n  mapping(string => Token) public tokenToAddress;\n  string[] public tokenList;\n\n  // Mapping {address: {transfer_id: boolean}} to track if certain address\n  // has performed the approval on certain transfer id\n  mapping(address => mapping(uint => bool)) public approvals;\n  \n  constructor(address[] memory _approvers, uint _quorum) {\n    quorum = _quorum;\n    approvers = _approvers;\n\n    for (uint i = 0; i < _approvers.length; i++) {\n      isApprover[_approvers[i]] = true;\n    }\n\n    admin = msg.sender;\n  }\n  \n  function addToken(string memory tokenSymbol, address tokenAddress) external onlyAdmin() {\n    tokenToAddress[tokenSymbol] = Token(tokenSymbol, tokenAddress, Standard.ERC20);\n    tokenList.push(tokenSymbol);\n  }\n\n  function getTokenList() external view returns(Token[] memory) {\n    Token[] memory _tokens = new Token[](tokenList.length);\n    for (uint i = 0; i < tokenList.length; i++) {\n      _tokens[i] = tokenToAddress[tokenList[i]];\n    }\n    return _tokens;\n  }\n\n  function getApprovers() external view returns(address[] memory) {\n    return approvers;\n  }\n  \n  function getTransfers() external view returns(Transfer[] memory) {\n    return transfers;\n  }\n  \n  function createTransfer(Standard standard, string memory tokenSymbol, uint amount,  address payable to) external onlyApprover {\n    transfers.push(Transfer(\n      transfers.length,\n      tokenSymbol,\n      standard,\n      amount,\n      to,\n      0,\n      false\n    ));\n  }\n  \n  // Approve based on the transfer id which is the index of the array\n  function approveTransfer(uint id) external onlyApprover {\n    require(transfers[id].sent == false, \"transfer has already been sent\");\n    require(approvals[msg.sender][id] == false, \"cannot approve transfer twice\");\n    \n    approvals[msg.sender][id] = true;\n    transfers[id].approvals++;\n    \n    // The moment the number of approvals reaches the quorum,\n    // Attempt to make the transfer\n    if(transfers[id].approvals >= quorum) {\n      transfers[id].sent = true;\n      address payable to = transfers[id].to;\n      uint amount = transfers[id].amount;\n\n      // ERC20\n      if (transfers[id].standard == Standard.ERC20) {\n        // Retrieve the contract address and call transferFrom\n        IERC20(tokenToAddress[transfers[id].tokenSymbol].tokenAddress).transferFrom(\n          address(this),\n          to,\n          amount\n        );  \n      }\n\n      if (transfers[id].standard == Standard.NATIVE) {\n        // Transfer eth in wei\n        to.transfer(amount);\n      }\n    }\n  }\n  \n  // Fallback\n  receive() external payable {}\n  \n  // Authorize\n  modifier onlyApprover() {\n    require(isApprover[msg.sender] == true, \"only approver allowed\");\n    _;\n  }\n\n  modifier onlyAdmin() {\n    require(msg.sender == admin, 'only admin');\n    _;\n  }\n}\n",
  "sourcePath": "/Users/entergmode/crypto/wallet/contracts/Wallet.sol",
  "compiler": {
    "name": "solc",
    "version": "0.8.6+commit.11564f7e.Emscripten.clang"
  },
  "schemaVersion": "3.4.0",
  "updatedAt": "2021-06-23T17:07:53.346Z",
  "devdoc": {
    "kind": "dev",
    "methods": {},
    "version": 1
  },
  "userdoc": {
    "kind": "user",
    "methods": {},
    "version": 1
  }
}